{
  "contractName": "MedicalDataTransfer",
  "abi": [
    {
      "inputs": [],
      "stateMutability": "nonpayable",
      "type": "constructor"
    },
    {
      "anonymous": false,
      "inputs": [
        {
          "indexed": true,
          "internalType": "address",
          "name": "patientAddress",
          "type": "address"
        },
        {
          "indexed": true,
          "internalType": "address",
          "name": "hospitalAddress",
          "type": "address"
        }
      ],
      "name": "ConsentGranted",
      "type": "event"
    },
    {
      "anonymous": false,
      "inputs": [
        {
          "indexed": true,
          "internalType": "address",
          "name": "patientAddress",
          "type": "address"
        },
        {
          "indexed": true,
          "internalType": "address",
          "name": "hospitalAddress",
          "type": "address"
        }
      ],
      "name": "ConsentRevoked",
      "type": "event"
    },
    {
      "anonymous": false,
      "inputs": [
        {
          "indexed": true,
          "internalType": "address",
          "name": "hospitalAddress",
          "type": "address"
        },
        {
          "indexed": false,
          "internalType": "string",
          "name": "name",
          "type": "string"
        }
      ],
      "name": "HospitalRegistered",
      "type": "event"
    },
    {
      "anonymous": false,
      "inputs": [
        {
          "indexed": true,
          "internalType": "address",
          "name": "addresskey",
          "type": "address"
        }
      ],
      "name": "HospitalRemoved",
      "type": "event"
    },
    {
      "anonymous": false,
      "inputs": [
        {
          "indexed": true,
          "internalType": "address",
          "name": "patientAddress",
          "type": "address"
        },
        {
          "indexed": false,
          "internalType": "string",
          "name": "name",
          "type": "string"
        }
      ],
      "name": "PatientRegistered",
      "type": "event"
    },
    {
      "anonymous": false,
      "inputs": [
        {
          "indexed": true,
          "internalType": "address",
          "name": "patientAddress",
          "type": "address"
        },
        {
          "indexed": false,
          "internalType": "uint256",
          "name": "recordCount",
          "type": "uint256"
        }
      ],
      "name": "RecordRetrieved",
      "type": "event"
    },
    {
      "anonymous": false,
      "inputs": [
        {
          "indexed": true,
          "internalType": "uint256",
          "name": "recordId",
          "type": "uint256"
        },
        {
          "indexed": true,
          "internalType": "address",
          "name": "patientAddress",
          "type": "address"
        },
        {
          "indexed": true,
          "internalType": "address",
          "name": "hospitalAddress",
          "type": "address"
        }
      ],
      "name": "RecordStored",
      "type": "event"
    },
    {
      "anonymous": false,
      "inputs": [
        {
          "indexed": true,
          "internalType": "bytes32",
          "name": "role",
          "type": "bytes32"
        },
        {
          "indexed": true,
          "internalType": "bytes32",
          "name": "previousAdminRole",
          "type": "bytes32"
        },
        {
          "indexed": true,
          "internalType": "bytes32",
          "name": "newAdminRole",
          "type": "bytes32"
        }
      ],
      "name": "RoleAdminChanged",
      "type": "event"
    },
    {
      "anonymous": false,
      "inputs": [
        {
          "indexed": true,
          "internalType": "bytes32",
          "name": "role",
          "type": "bytes32"
        },
        {
          "indexed": true,
          "internalType": "address",
          "name": "account",
          "type": "address"
        },
        {
          "indexed": true,
          "internalType": "address",
          "name": "sender",
          "type": "address"
        }
      ],
      "name": "RoleGranted",
      "type": "event"
    },
    {
      "anonymous": false,
      "inputs": [
        {
          "indexed": true,
          "internalType": "bytes32",
          "name": "role",
          "type": "bytes32"
        },
        {
          "indexed": true,
          "internalType": "address",
          "name": "account",
          "type": "address"
        },
        {
          "indexed": true,
          "internalType": "address",
          "name": "sender",
          "type": "address"
        }
      ],
      "name": "RoleRevoked",
      "type": "event"
    },
    {
      "inputs": [],
      "name": "ADMIN_ROLE",
      "outputs": [
        {
          "internalType": "bytes32",
          "name": "",
          "type": "bytes32"
        }
      ],
      "stateMutability": "view",
      "type": "function",
      "constant": true
    },
    {
      "inputs": [],
      "name": "Admin",
      "outputs": [
        {
          "internalType": "address",
          "name": "",
          "type": "address"
        }
      ],
      "stateMutability": "view",
      "type": "function",
      "constant": true
    },
    {
      "inputs": [],
      "name": "DEFAULT_ADMIN_ROLE",
      "outputs": [
        {
          "internalType": "bytes32",
          "name": "",
          "type": "bytes32"
        }
      ],
      "stateMutability": "view",
      "type": "function",
      "constant": true
    },
    {
      "inputs": [],
      "name": "HOSPITAL_ROLE",
      "outputs": [
        {
          "internalType": "bytes32",
          "name": "",
          "type": "bytes32"
        }
      ],
      "stateMutability": "view",
      "type": "function",
      "constant": true
    },
    {
      "inputs": [],
      "name": "PATIENT_ROLE",
      "outputs": [
        {
          "internalType": "bytes32",
          "name": "",
          "type": "bytes32"
        }
      ],
      "stateMutability": "view",
      "type": "function",
      "constant": true
    },
    {
      "inputs": [
        {
          "internalType": "uint256",
          "name": "",
          "type": "uint256"
        }
      ],
      "name": "consents",
      "outputs": [
        {
          "internalType": "address",
          "name": "hospitalAddress",
          "type": "address"
        },
        {
          "internalType": "address",
          "name": "patientAddress",
          "type": "address"
        },
        {
          "internalType": "bool",
          "name": "consentGiven",
          "type": "bool"
        },
        {
          "internalType": "string",
          "name": "message",
          "type": "string"
        }
      ],
      "stateMutability": "view",
      "type": "function",
      "constant": true
    },
    {
      "inputs": [
        {
          "internalType": "bytes32",
          "name": "role",
          "type": "bytes32"
        }
      ],
      "name": "getRoleAdmin",
      "outputs": [
        {
          "internalType": "bytes32",
          "name": "",
          "type": "bytes32"
        }
      ],
      "stateMutability": "view",
      "type": "function",
      "constant": true
    },
    {
      "inputs": [
        {
          "internalType": "bytes32",
          "name": "role",
          "type": "bytes32"
        },
        {
          "internalType": "address",
          "name": "account",
          "type": "address"
        }
      ],
      "name": "grantRole",
      "outputs": [],
      "stateMutability": "nonpayable",
      "type": "function"
    },
    {
      "inputs": [
        {
          "internalType": "bytes32",
          "name": "role",
          "type": "bytes32"
        },
        {
          "internalType": "address",
          "name": "account",
          "type": "address"
        }
      ],
      "name": "hasRole",
      "outputs": [
        {
          "internalType": "bool",
          "name": "",
          "type": "bool"
        }
      ],
      "stateMutability": "view",
      "type": "function",
      "constant": true
    },
    {
      "inputs": [
        {
          "internalType": "uint256",
          "name": "",
          "type": "uint256"
        }
      ],
      "name": "hospitalAddresses",
      "outputs": [
        {
          "internalType": "address",
          "name": "",
          "type": "address"
        }
      ],
      "stateMutability": "view",
      "type": "function",
      "constant": true
    },
    {
      "inputs": [
        {
          "internalType": "address",
          "name": "",
          "type": "address"
        },
        {
          "internalType": "address",
          "name": "",
          "type": "address"
        }
      ],
      "name": "hospitalInterconnections",
      "outputs": [
        {
          "internalType": "bool",
          "name": "",
          "type": "bool"
        }
      ],
      "stateMutability": "view",
      "type": "function",
      "constant": true
    },
    {
      "inputs": [
        {
          "internalType": "address",
          "name": "",
          "type": "address"
        }
      ],
      "name": "hospitals",
      "outputs": [
        {
          "internalType": "uint256",
          "name": "id",
          "type": "uint256"
        },
        {
          "internalType": "string",
          "name": "name",
          "type": "string"
        },
        {
          "internalType": "string",
          "name": "location",
          "type": "string"
        },
        {
          "internalType": "address",
          "name": "hospitalAddress",
          "type": "address"
        }
      ],
      "stateMutability": "view",
      "type": "function",
      "constant": true
    },
    {
      "inputs": [
        {
          "internalType": "uint256",
          "name": "",
          "type": "uint256"
        }
      ],
      "name": "patientAddresses",
      "outputs": [
        {
          "internalType": "address",
          "name": "",
          "type": "address"
        }
      ],
      "stateMutability": "view",
      "type": "function",
      "constant": true
    },
    {
      "inputs": [
        {
          "internalType": "address",
          "name": "",
          "type": "address"
        },
        {
          "internalType": "address",
          "name": "",
          "type": "address"
        }
      ],
      "name": "patientConsents",
      "outputs": [
        {
          "internalType": "bool",
          "name": "",
          "type": "bool"
        }
      ],
      "stateMutability": "view",
      "type": "function",
      "constant": true
    },
    {
      "inputs": [
        {
          "internalType": "address",
          "name": "",
          "type": "address"
        },
        {
          "internalType": "uint256",
          "name": "",
          "type": "uint256"
        }
      ],
      "name": "patients",
      "outputs": [
        {
          "internalType": "uint256",
          "name": "id",
          "type": "uint256"
        },
        {
          "internalType": "string",
          "name": "name",
          "type": "string"
        },
        {
          "internalType": "address",
          "name": "patientAddress",
          "type": "address"
        },
        {
          "internalType": "address",
          "name": "hospitalAddress",
          "type": "address"
        }
      ],
      "stateMutability": "view",
      "type": "function",
      "constant": true
    },
    {
      "inputs": [
        {
          "internalType": "uint256",
          "name": "",
          "type": "uint256"
        }
      ],
      "name": "recordses",
      "outputs": [
        {
          "internalType": "address",
          "name": "",
          "type": "address"
        }
      ],
      "stateMutability": "view",
      "type": "function",
      "constant": true
    },
    {
      "inputs": [
        {
          "internalType": "bytes32",
          "name": "role",
          "type": "bytes32"
        },
        {
          "internalType": "address",
          "name": "account",
          "type": "address"
        }
      ],
      "name": "renounceRole",
      "outputs": [],
      "stateMutability": "nonpayable",
      "type": "function"
    },
    {
      "inputs": [
        {
          "internalType": "bytes32",
          "name": "role",
          "type": "bytes32"
        },
        {
          "internalType": "address",
          "name": "account",
          "type": "address"
        }
      ],
      "name": "revokeRole",
      "outputs": [],
      "stateMutability": "nonpayable",
      "type": "function"
    },
    {
      "inputs": [
        {
          "internalType": "bytes4",
          "name": "interfaceId",
          "type": "bytes4"
        }
      ],
      "name": "supportsInterface",
      "outputs": [
        {
          "internalType": "bool",
          "name": "",
          "type": "bool"
        }
      ],
      "stateMutability": "view",
      "type": "function",
      "constant": true
    },
    {
      "inputs": [
        {
          "internalType": "string",
          "name": "name",
          "type": "string"
        },
        {
          "internalType": "address",
          "name": "addresskey",
          "type": "address"
        },
        {
          "internalType": "string",
          "name": "location",
          "type": "string"
        }
      ],
      "name": "registerHospital",
      "outputs": [],
      "stateMutability": "nonpayable",
      "type": "function"
    },
    {
      "inputs": [
        {
          "internalType": "string",
          "name": "name",
          "type": "string"
        },
        {
          "internalType": "address",
          "name": "addresskey",
          "type": "address"
        },
        {
          "internalType": "address",
          "name": "hospitalAddress",
          "type": "address"
        }
      ],
      "name": "registerPatient",
      "outputs": [],
      "stateMutability": "nonpayable",
      "type": "function"
    },
    {
      "inputs": [
        {
          "internalType": "address",
          "name": "patientAddress",
          "type": "address"
        },
        {
          "internalType": "string",
          "name": "encryptedData",
          "type": "string"
        },
        {
          "internalType": "string",
          "name": "encryptionKey",
          "type": "string"
        }
      ],
      "name": "storeRecord",
      "outputs": [],
      "stateMutability": "nonpayable",
      "type": "function"
    },
    {
      "inputs": [],
      "name": "getAllHospitals",
      "outputs": [
        {
          "components": [
            {
              "internalType": "uint256",
              "name": "id",
              "type": "uint256"
            },
            {
              "internalType": "string",
              "name": "name",
              "type": "string"
            },
            {
              "internalType": "string",
              "name": "location",
              "type": "string"
            },
            {
              "internalType": "address",
              "name": "hospitalAddress",
              "type": "address"
            }
          ],
          "internalType": "struct MedicalDataTransfer.Hospital[]",
          "name": "",
          "type": "tuple[]"
        }
      ],
      "stateMutability": "view",
      "type": "function",
      "constant": true
    },
    {
      "inputs": [],
      "name": "getAllPatients",
      "outputs": [
        {
          "components": [
            {
              "internalType": "uint256",
              "name": "id",
              "type": "uint256"
            },
            {
              "internalType": "string",
              "name": "name",
              "type": "string"
            },
            {
              "internalType": "address",
              "name": "patientAddress",
              "type": "address"
            },
            {
              "internalType": "address",
              "name": "hospitalAddress",
              "type": "address"
            }
          ],
          "internalType": "struct MedicalDataTransfer.Patient[]",
          "name": "",
          "type": "tuple[]"
        }
      ],
      "stateMutability": "view",
      "type": "function",
      "constant": true
    },
    {
      "inputs": [
        {
          "internalType": "address",
          "name": "patientAddress",
          "type": "address"
        },
        {
          "internalType": "address",
          "name": "hospitalAddress",
          "type": "address"
        },
        {
          "internalType": "bool",
          "name": "consentGiven",
          "type": "bool"
        },
        {
          "internalType": "string",
          "name": "message",
          "type": "string"
        }
      ],
      "name": "addConsent",
      "outputs": [],
      "stateMutability": "nonpayable",
      "type": "function"
    },
    {
      "inputs": [],
      "name": "getConsents",
      "outputs": [
        {
          "components": [
            {
              "internalType": "address",
              "name": "hospitalAddress",
              "type": "address"
            },
            {
              "internalType": "address",
              "name": "patientAddress",
              "type": "address"
            },
            {
              "internalType": "bool",
              "name": "consentGiven",
              "type": "bool"
            },
            {
              "internalType": "string",
              "name": "message",
              "type": "string"
            }
          ],
          "internalType": "struct MedicalDataTransfer.Consent[]",
          "name": "",
          "type": "tuple[]"
        }
      ],
      "stateMutability": "view",
      "type": "function",
      "constant": true
    },
    {
      "inputs": [
        {
          "internalType": "address",
          "name": "hospitalAddress",
          "type": "address"
        }
      ],
      "name": "grantConsent",
      "outputs": [],
      "stateMutability": "nonpayable",
      "type": "function"
    },
    {
      "inputs": [
        {
          "internalType": "address",
          "name": "hospitalAddress",
          "type": "address"
        }
      ],
      "name": "revokeConsent",
      "outputs": [],
      "stateMutability": "nonpayable",
      "type": "function"
    },
    {
      "inputs": [
        {
          "internalType": "address",
          "name": "patientAddress",
          "type": "address"
        },
        {
          "internalType": "address",
          "name": "hospitalAddress",
          "type": "address"
        }
      ],
      "name": "getPatientConsent",
      "outputs": [
        {
          "internalType": "bool",
          "name": "",
          "type": "bool"
        }
      ],
      "stateMutability": "view",
      "type": "function",
      "constant": true
    },
    {
      "inputs": [
        {
          "internalType": "address",
          "name": "patientAddress",
          "type": "address"
        }
      ],
      "name": "viewMyRecord",
      "outputs": [
        {
          "components": [
            {
              "internalType": "uint256",
              "name": "id",
              "type": "uint256"
            },
            {
              "internalType": "address",
              "name": "patientAddress",
              "type": "address"
            },
            {
              "internalType": "address",
              "name": "hospitalAddress",
              "type": "address"
            },
            {
              "internalType": "string",
              "name": "encryptedData",
              "type": "string"
            },
            {
              "internalType": "string",
              "name": "encryptionKey",
              "type": "string"
            }
          ],
          "internalType": "struct MedicalDataTransfer.Record[]",
          "name": "",
          "type": "tuple[]"
        }
      ],
      "stateMutability": "view",
      "type": "function",
      "constant": true
    },
    {
      "inputs": [
        {
          "internalType": "address",
          "name": "patientAddress",
          "type": "address"
        }
      ],
      "name": "viewPatientData",
      "outputs": [
        {
          "components": [
            {
              "internalType": "uint256",
              "name": "id",
              "type": "uint256"
            },
            {
              "internalType": "address",
              "name": "patientAddress",
              "type": "address"
            },
            {
              "internalType": "address",
              "name": "hospitalAddress",
              "type": "address"
            },
            {
              "internalType": "string",
              "name": "encryptedData",
              "type": "string"
            },
            {
              "internalType": "string",
              "name": "encryptionKey",
              "type": "string"
            }
          ],
          "internalType": "struct MedicalDataTransfer.Record[]",
          "name": "",
          "type": "tuple[]"
        }
      ],
      "stateMutability": "view",
      "type": "function",
      "constant": true
    }
  ],
  "bytecode": "0x6080604052600180546001600160a01b03191673a500301371167fefbf7161b4b8ae5dcae6b7c11d1790553480156200003757600080fd5b5060015462000071907fa49807205ce4d355092ef5a8a18f56e8913cf4a201fbe287825b095693c21775906001600160a01b031662000077565b62000127565b62000083828262000087565b5050565b6000828152602081815260408083206001600160a01b038516845290915290205460ff1662000083576000828152602081815260408083206001600160a01b03851684529091529020805460ff19166001179055620000e33390565b6001600160a01b0316816001600160a01b0316837f2f8788117e7eff1d82e926ec794901d17c78024a50270940304540a733656f0d60405160405180910390a45050565b61297280620001376000396000f3fe608060405234801561001057600080fd5b50600436106101755760003560e01c806301ffc9a71461017a57806318a231a9146101a2578063248a9ca3146101b7578063293fda5a146101d85780632f2ff15d1461021457806336568abe146102295780634e9f71541461023c5780636fb3bc771461025157806375b238fc146102715780637a97d6551461029857806391d14854146102ad578063977198f8146102c0578063981bce3e146102ee578063a217fddf14610311578063a79861f114610319578063ac5cb97d1461032c578063b40f169114610341578063bd8247bf1461036c578063cbe4a4591461037f578063cf0f9c3414610392578063d1a48627146103a5578063d547741f146103b8578063d557d53a146103cb578063d9ad2300146103ee578063eb538cec14610401578063eefd694b14610414578063f063d08d14610442578063f093cf8014610455578063f6ba667814610478578063f7ca0af01461048d578063ff1b636d146104a0575b600080fd5b61018d610188366004611fc2565b6104b3565b60405190151581526020015b60405180910390f35b6101aa6104ea565b604051610199919061203c565b6101ca6101c53660046120d3565b6107c4565b604051908152602001610199565b61018d6101e6366004612108565b6001600160a01b03918216600090815260096020908152604080832093909416825291909152205460ff1690565b61022761022236600461213b565b6107d9565b005b61022761023736600461213b565b6107fa565b61024461087d565b604051610199919061215e565b61026461025f3660046121f5565b610aed565b6040516101999190612210565b6101ca7fa49807205ce4d355092ef5a8a18f56e8913cf4a201fbe287825b095693c2177581565b6102a0610d55565b60405161019991906122b8565b61018d6102bb36600461213b565b610e7e565b61018d6102ce366004612108565b600860209081526000928352604080842090915290825290205460ff1681565b6103016102fc366004612343565b610ea7565b604051610199949392919061236d565b6101ca600081565b6102276103273660046121f5565b610f89565b6101ca6000805160206128fd83398151915281565b61035461034f3660046120d3565b61109b565b6040516001600160a01b039091168152602001610199565b61026461037a3660046121f5565b6110c5565b61022761038d366004612449565b611330565b6102276103a03660046124a6565b6114b6565b6102276103b33660046121f5565b611626565b6102276103c636600461213b565b611746565b6103de6103d93660046120d3565b611762565b604051610199949392919061251b565b6103546103fc3660046120d3565b611838565b61035461040f3660046120d3565b611848565b61018d610422366004612108565b600960209081526000928352604080842090915290825290205460ff1681565b610227610450366004612559565b611858565b6104686104633660046121f5565b611a05565b60405161019994939291906125cc565b6101ca60008051602061291d83398151915281565b61022761049b366004612611565b611b47565b600154610354906001600160a01b031681565b60006001600160e01b03198216637965db0b60e01b14806104e457506301ffc9a760e01b6001600160e01b03198316145b92915050565b60606000805b600c548110156105545760066000600c838154811061051157610511612657565b60009182526020808320909101546001600160a01b031683528201929092526040019020546105409083612683565b91508061054c81612696565b9150506104f0565b506000816001600160401b0381111561056f5761056f6123a7565b6040519080825280602002602001820160405280156105dd57816020015b6105ca6040518060800160405280600081526020016060815260200160006001600160a01b0316815260200160006001600160a01b031681525090565b81526020019060019003908161058d5790505b5090506000805b600c548110156107bb57600060066000600c848154811061060757610607612657565b60009182526020808320909101546001600160a01b031683528281019390935260409182018120805483518186028101860190945280845292939092919084015b8282101561073c578382906000526020600020906004020160405180608001604052908160008201548152602001600182018054610685906126af565b80601f01602080910402602001604051908101604052809291908181526020018280546106b1906126af565b80156106fe5780601f106106d3576101008083540402835291602001916106fe565b820191906000526020600020905b8154815290600101906020018083116106e157829003601f168201915b505050918352505060028201546001600160a01b03908116602080840191909152600390930154166040909101529082526001929092019101610648565b50505050905060005b81518110156107a65781818151811061076057610760612657565b602002602001015185858151811061077a5761077a612657565b6020026020010181905250838061079090612696565b945050808061079e90612696565b915050610745565b505080806107b390612696565b9150506105e4565b50909392505050565b60009081526020819052604090206001015490565b6107e2826107c4565b6107eb81611cb5565b6107f58383611cc2565b505050565b6001600160a01b038116331461086f5760405162461bcd60e51b815260206004820152602f60248201527f416363657373436f6e74726f6c3a2063616e206f6e6c792072656e6f756e636560448201526e103937b632b9903337b91039b2b63360891b60648201526084015b60405180910390fd5b6108798282611d46565b5050565b600b546060906000906001600160401b0381111561089d5761089d6123a7565b60405190808252806020026020018201604052801561090257816020015b6108ef604051806080016040528060008152602001606081526020016060815260200160006001600160a01b031681525090565b8152602001906001900390816108bb5790505b50905060005b600b54811015610ae75760056000600b838154811061092957610929612657565b9060005260206000200160009054906101000a90046001600160a01b03166001600160a01b03166001600160a01b031681526020019081526020016000206040518060800160405290816000820154815260200160018201805461098c906126af565b80601f01602080910402602001604051908101604052809291908181526020018280546109b8906126af565b8015610a055780601f106109da57610100808354040283529160200191610a05565b820191906000526020600020905b8154815290600101906020018083116109e857829003601f168201915b50505050508152602001600282018054610a1e906126af565b80601f0160208091040260200160405190810160405280929190818152602001828054610a4a906126af565b8015610a975780601f10610a6c57610100808354040283529160200191610a97565b820191906000526020600020905b815481529060010190602001808311610a7a57829003601f168201915b5050509183525050600391909101546001600160a01b03166020909101528251839083908110610ac957610ac9612657565b60200260200101819052508080610adf90612696565b915050610908565b50919050565b60606000805160206128fd833981519152610b0781611cb5565b336001600160a01b03841614610b5b5760405162461bcd60e51b815260206004820152601960248201527843616e206f6e6c792076696577206f776e207265636f72647360381b6044820152606401610866565b6001600160a01b038316600090815260076020526040902054610b905760405162461bcd60e51b8152600401610866906126e3565b6001600160a01b038316600090815260076020908152604080832080548251818502810185019093528083529193909284015b82821015610d495760008481526020908190206040805160a081018252600586029092018054835260018101546001600160a01b0390811694840194909452600281015490931690820152600382018054919291606084019190610c26906126af565b80601f0160208091040260200160405190810160405280929190818152602001828054610c52906126af565b8015610c9f5780601f10610c7457610100808354040283529160200191610c9f565b820191906000526020600020905b815481529060010190602001808311610c8257829003601f168201915b50505050508152602001600482018054610cb8906126af565b80601f0160208091040260200160405190810160405280929190818152602001828054610ce4906126af565b8015610d315780601f10610d0657610100808354040283529160200191610d31565b820191906000526020600020905b815481529060010190602001808311610d1457829003601f168201915b50505050508152505081526020019060010190610bc3565b50505050915050919050565b6060600e805480602002602001604051908101604052809291908181526020016000905b82821015610e75576000848152602090819020604080516080810182526003860290920180546001600160a01b039081168452600182015490811694840194909452600160a01b90930460ff16151590820152600282018054919291606084019190610de4906126af565b80601f0160208091040260200160405190810160405280929190818152602001828054610e10906126af565b8015610e5d5780601f10610e3257610100808354040283529160200191610e5d565b820191906000526020600020905b815481529060010190602001808311610e4057829003601f168201915b50505050508152505081526020019060010190610d79565b50505050905090565b6000918252602082815260408084206001600160a01b0393909316845291905290205460ff1690565b60066020528160005260406000208181548110610ec357600080fd5b906000526020600020906004020160009150915050806000015490806001018054610eed906126af565b80601f0160208091040260200160405190810160405280929190818152602001828054610f19906126af565b8015610f665780601f10610f3b57610100808354040283529160200191610f66565b820191906000526020600020905b815481529060010190602001808311610f4957829003601f168201915b50505050600283015460039093015491926001600160a01b039081169216905084565b6000805160206128fd833981519152610fa181611cb5565b610fb960008051602061291d83398151915283610e7e565b610fd55760405162461bcd60e51b81526004016108669061270d565b3360009081526009602090815260408083206001600160a01b038616845290915290205460ff16156110415760405162461bcd60e51b815260206004820152601560248201527421b7b739b2b73a1030b63932b0b23c9033b4bb32b760591b6044820152606401610866565b3360008181526009602090815260408083206001600160a01b0387168085529252808320805460ff19166001179055519092917f8105c574d2239a3a4f73f5efc5bc253cffb275647df535adfa2c240739cc922091a35050565b600c81815481106110ab57600080fd5b6000918252602090912001546001600160a01b0316905081565b606060008051602061291d8339815191526110df81611cb5565b6001600160a01b038316600090815260096020908152604080832033845290915290205460ff166111425760405162461bcd60e51b815260206004820152600d60248201526c1058d8d95cdcc819195b9a5959609a1b6044820152606401610866565b6001600160a01b0383166000908152600760205260409020546111775760405162461bcd60e51b8152600401610866906126e3565b6001600160a01b038316600090815260076020908152604080832080548251818502810185019093528083529193909284015b82821015610d495760008481526020908190206040805160a081018252600586029092018054835260018101546001600160a01b039081169484019490945260028101549093169082015260038201805491929160608401919061120d906126af565b80601f0160208091040260200160405190810160405280929190818152602001828054611239906126af565b80156112865780601f1061125b57610100808354040283529160200191611286565b820191906000526020600020905b81548152906001019060200180831161126957829003601f168201915b5050505050815260200160048201805461129f906126af565b80601f01602080910402602001604051908101604052809291908181526020018280546112cb906126af565b80156113185780601f106112ed57610100808354040283529160200191611318565b820191906000526020600020905b8154815290600101906020018083116112fb57829003601f168201915b505050505081525050815260200190600101906111aa565b61133e600380546001019055565b600061134960035490565b6040805160808101825282815260208082018881526001600160a01b03808916848601819052908816606085015260009081526006835293842080546001818101835591865292909420835160049093020191825551939450909283928201906113b3908261278d565b506040828101516002830180546001600160a01b03199081166001600160a01b03938416179091556060909401516003909301805490941692811692909217909255851660009081526006602052205460010361145657600c80546001810182556000919091527fdf6966c971051c3d54ec59162606531493a51404a002842f56009d7e5cf4a8c70180546001600160a01b0319166001600160a01b0386161790555b61146e6000805160206128fd83398151915285611dab565b836001600160a01b03167fc85b128388b9c331a2a5485dce4cd0f3db9f7c279d327ce95d6d39d6c94644c7866040516114a7919061284c565b60405180910390a25050505050565b60008051602061291d8339815191526114ce81611cb5565b60018315151461151d5760405162461bcd60e51b815260206004820152601a602482015279436f6e73656e742076616c7565206d757374206265207472756560301b6044820152606401610866565b604080516080810182526001600160a01b0380871682528781166020830190815286151593830193845260608301868152600e8054600181018255600091909152845160039091027fbb7b4a454dc3493923482f07822329ed19e8244eff582cc204f8554c3620c3fd810180549286166001600160a01b031990931692909217825592517fbb7b4a454dc3493923482f07822329ed19e8244eff582cc204f8554c3620c3fe8401805497511515600160a01b026001600160a81b031990981691909516179590951790925590519192917fbb7b4a454dc3493923482f07822329ed19e8244eff582cc204f8554c3620c3ff9091019061161c908261278d565b5050505050505050565b6000805160206128fd83398151915261163e81611cb5565b61165660008051602061291d83398151915283610e7e565b6116725760405162461bcd60e51b81526004016108669061270d565b3360009081526009602090815260408083206001600160a01b038616845290915290205460ff166116ef5760405162461bcd60e51b815260206004820152602160248201527f4e6f20636f6e73656e7420676976656e20746f207468697320686f73706974616044820152601b60fa1b6064820152608401610866565b3360008181526009602090815260408083206001600160a01b0387168085529252808320805460ff19169055519092917febecee2d3f2ea272f73dd9d9ccc0bacd11280d61240332cbcd8a68173ae5cc2c91a35050565b61174f826107c4565b61175881611cb5565b6107f58383611d46565b600e818154811061177257600080fd5b60009182526020909120600390910201805460018201546002830180546001600160a01b03938416955092821693600160a01b90920460ff16926117b5906126af565b80601f01602080910402602001604051908101604052809291908181526020018280546117e1906126af565b801561182e5780601f106118035761010080835404028352916020019161182e565b820191906000526020600020905b81548152906001019060200180831161181157829003601f168201915b5050505050905084565b600b81815481106110ab57600080fd5b600d81815481106110ab57600080fd5b6001600160a01b038216600090815260056020526040902054156118bc5760405162461bcd60e51b815260206004820152601b60248201527a121bdcdc1a5d185b08185b1c9958591e481c9959da5cdd195c9959602a1b6044820152606401610866565b6118ca600280546001019055565b60006118d560025490565b6040805160808101825282815260208082018881528284018790526001600160a01b0388166060840181905260009081526005909252929020815181559151929350916001820190611927908261278d565b506040820151600282019061193c908261278d565b5060609190910151600390910180546001600160a01b03199081166001600160a01b0393841617909155600b80546001810182556000919091527f0175b7a638427703f0dbe7bb9bbf987a2551717b34e79f33b5b1008d1fa01db90180549091169185169190911790556119be60008051602061291d83398151915284611dab565b826001600160a01b03167f72cefccb74b7edacb21023a72b39a2cecb1123ba70d1eea03d3509d046b941c2856040516119f7919061284c565b60405180910390a250505050565b60056020526000908152604090208054600182018054919291611a27906126af565b80601f0160208091040260200160405190810160405280929190818152602001828054611a53906126af565b8015611aa05780601f10611a7557610100808354040283529160200191611aa0565b820191906000526020600020905b815481529060010190602001808311611a8357829003601f168201915b505050505090806002018054611ab5906126af565b80601f0160208091040260200160405190810160405280929190818152602001828054611ae1906126af565b8015611b2e5780601f10611b0357610100808354040283529160200191611b2e565b820191906000526020600020905b815481529060010190602001808311611b1157829003601f168201915b505050600390930154919250506001600160a01b031684565b60008051602061291d833981519152611b5f81611cb5565b611b6d600480546001019055565b6000611b7860045490565b6001600160a01b038087166000818152600760209081526040808320815160a08101835287815280840195865233928101838152606082018d8152608083018d9052835460018181018655948852959096208251600590960201948555955191840180549288166001600160a01b0319938416179055945160028401805491909716911617909455905193945091929091906003820190611c19908261278d565b5060808201516004820190611c2e908261278d565b5050600d805460018101825560009182527fd7b6990105719101dabeb77144f2a3385c8033acd3af97e9423a695e81ad1eb50180546001600160a01b0319166001600160a01b038a811691821790925560405191851693509185917f271f6d1a6ced511c825954686a627824819d9d0414ad24ab29f5a016a33f4ec79190a4505050505050565b611cbf8133611db5565b50565b611ccc8282610e7e565b610879576000828152602081815260408083206001600160a01b03851684529091529020805460ff19166001179055611d023390565b6001600160a01b0316816001600160a01b0316837f2f8788117e7eff1d82e926ec794901d17c78024a50270940304540a733656f0d60405160405180910390a45050565b611d508282610e7e565b15610879576000828152602081815260408083206001600160a01b0385168085529252808320805460ff1916905551339285917ff6391f5c32d9c69d2a47ea670b442974b53935d1edc7fd64eb21e047a839171b9190a45050565b6108798282611cc2565b611dbf8282610e7e565b61087957611dcc81611e0e565b611dd7836020611e20565b604051602001611de892919061285f565b60408051601f198184030181529082905262461bcd60e51b82526108669160040161284c565b60606104e46001600160a01b03831660145b60606000611e2f8360026128ce565b611e3a906002612683565b6001600160401b03811115611e5157611e516123a7565b6040519080825280601f01601f191660200182016040528015611e7b576020820181803683370190505b509050600360fc1b81600081518110611e9657611e96612657565b60200101906001600160f81b031916908160001a905350600f60fb1b81600181518110611ec557611ec5612657565b60200101906001600160f81b031916908160001a9053506000611ee98460026128ce565b611ef4906001612683565b90505b6001811115611f6c576f181899199a1a9b1b9c1cb0b131b232b360811b85600f1660108110611f2857611f28612657565b1a60f81b828281518110611f3e57611f3e612657565b60200101906001600160f81b031916908160001a90535060049490941c93611f65816128e5565b9050611ef7565b508315611fbb5760405162461bcd60e51b815260206004820181905260248201527f537472696e67733a20686578206c656e67746820696e73756666696369656e746044820152606401610866565b9392505050565b600060208284031215611fd457600080fd5b81356001600160e01b031981168114611fbb57600080fd5b60005b83811015612007578181015183820152602001611fef565b50506000910152565b60008151808452612028816020860160208601611fec565b601f01601f19169290920160200192915050565b60006020808301818452808551808352604092508286019150828160051b87010184880160005b838110156120c557603f19898403018552815160808151855288820151818a87015261209182870182612010565b838a01516001600160a01b03908116888c015260609485015116939096019290925250509386019390860190600101612063565b509098975050505050505050565b6000602082840312156120e557600080fd5b5035919050565b80356001600160a01b038116811461210357600080fd5b919050565b6000806040838503121561211b57600080fd5b612124836120ec565b9150612132602084016120ec565b90509250929050565b6000806040838503121561214e57600080fd5b82359150612132602084016120ec565b60006020808301818452808551808352604092508286019150828160051b87010184880160005b838110156120c557603f19898403018552815160808151855288820151818a8701526121b382870182612010565b91505087820151858203898701526121cb8282612010565b6060938401516001600160a01b031696909301959095525094870194925090860190600101612185565b60006020828403121561220757600080fd5b611fbb826120ec565b60006020808301818452808551808352604092508286019150828160051b87010184880160005b838110156120c557888303603f19018552815180518452878101516001600160a01b039081168986015287820151168785015260608082015160a0828701819052919061228683880182612010565b92505050608080830151925085820381870152506122a48183612010565b968901969450505090860190600101612237565b60006020808301818452808551808352604092508286019150828160051b87010184880160005b838110156120c557888303603f19018552815180516001600160a01b0390811685528882015116888501528681015115158785015260609081015160809185018290529061232f81860183612010565b9689019694505050908601906001016122df565b6000806040838503121561235657600080fd5b61235f836120ec565b946020939093013593505050565b8481526080602082015260006123866080830186612010565b6001600160a01b039485166040840152929093166060909101529392505050565b634e487b7160e01b600052604160045260246000fd5b600082601f8301126123ce57600080fd5b81356001600160401b03808211156123e8576123e86123a7565b604051601f8301601f19908116603f01168101908282118183101715612410576124106123a7565b8160405283815286602085880101111561242957600080fd5b836020870160208301376000602085830101528094505050505092915050565b60008060006060848603121561245e57600080fd5b83356001600160401b0381111561247457600080fd5b612480868287016123bd565b93505061248f602085016120ec565b915061249d604085016120ec565b90509250925092565b600080600080608085870312156124bc57600080fd5b6124c5856120ec565b93506124d3602086016120ec565b9250604085013580151581146124e857600080fd5b915060608501356001600160401b0381111561250357600080fd5b61250f878288016123bd565b91505092959194509250565b6001600160a01b03858116825284166020820152821515604082015260806060820181905260009061254f90830184612010565b9695505050505050565b60008060006060848603121561256e57600080fd5b83356001600160401b038082111561258557600080fd5b612591878388016123bd565b945061259f602087016120ec565b935060408601359150808211156125b557600080fd5b506125c2868287016123bd565b9150509250925092565b8481526080602082015260006125e56080830186612010565b82810360408401526125f78186612010565b91505060018060a01b038316606083015295945050505050565b60008060006060848603121561262657600080fd5b61262f846120ec565b925060208401356001600160401b038082111561264b57600080fd5b61259f878388016123bd565b634e487b7160e01b600052603260045260246000fd5b634e487b7160e01b600052601160045260246000fd5b808201808211156104e4576104e461266d565b6000600182016126a8576126a861266d565b5060010190565b600181811c908216806126c357607f821691505b602082108103610ae757634e487b7160e01b600052602260045260246000fd5b60208082526010908201526f139bc81c9958dbdc991cc8199bdd5b9960821b604082015260600190565b602080825260189082015277496e76616c696420686f73706974616c206164647265737360401b604082015260600190565b601f8211156107f557600081815260208120601f850160051c810160208610156127665750805b601f850160051c820191505b8181101561278557828155600101612772565b505050505050565b81516001600160401b038111156127a6576127a66123a7565b6127ba816127b484546126af565b8461273f565b602080601f8311600181146127ef57600084156127d75750858301515b600019600386901b1c1916600185901b178555612785565b600085815260208120601f198616915b8281101561281e578886015182559484019460019091019084016127ff565b508582101561283c5787850151600019600388901b60f8161c191681555b5050505050600190811b01905550565b602081526000611fbb6020830184612010565b76020b1b1b2b9b9a1b7b73a3937b61d1030b1b1b7bab73a1604d1b815260008351612891816017850160208801611fec565b7001034b99036b4b9b9b4b733903937b6329607d1b60179184019182015283516128c2816028840160208801611fec565b01602801949350505050565b80820281158282048414176104e4576104e461266d565b6000816128f4576128f461266d565b50600019019056fe72606200fac42b7dc86b75901d61ecfab2a4a1a6eded478b97a428094891abedc8f5b4140cca307cd927e59cbeea8291bffeee228fc677f0fa059aef7b4dd8d5a2646970667358221220a8102ef299bd23763755eb19f5814e252ba543d78fbbba44c100f629499ee16064736f6c63430008130033",
  "immutableReferences": {},
  "source": "// SPDX-License-Identifier: MIT\r\npragma solidity ^0.8.0;\r\n\r\nimport \"@openzeppelin/contracts/access/AccessControl.sol\";\r\nimport \"@openzeppelin/contracts/utils/Counters.sol\";\r\n\r\ncontract MedicalDataTransfer is AccessControl {\r\n    using Counters for Counters.Counter;\r\n\r\n    bytes32 public constant ADMIN_ROLE = keccak256(\"ADMIN_ROLE\");\r\n    bytes32 public constant HOSPITAL_ROLE = keccak256(\"HOSPITAL_ROLE\");\r\n    bytes32 public constant PATIENT_ROLE = keccak256(\"PATIENT_ROLE\");\r\n\r\n    address public Admin = 0xa500301371167FefBf7161B4b8Ae5dcAE6B7C11D;\r\n\r\n    Counters.Counter private _hospitalCounter;\r\n    Counters.Counter private _patientCounter;\r\n    Counters.Counter private _recordCounter;\r\n\r\n    mapping(address => Hospital) public hospitals;\r\n    mapping(address => Patient[]) public patients;\r\n    mapping(address => Record[]) private records;\r\n\r\n    mapping(address => mapping(address => bool)) public hospitalInterconnections;\r\n    mapping(address => mapping(address => bool)) public patientConsents;\r\n    mapping(address => address[]) private patientConsentHospitals;\r\n\r\n    address[] public hospitalAddresses;\r\n    address[] public patientAddresses;\r\n    address[] public recordses;\r\n\r\n    event HospitalRegistered(address indexed hospitalAddress, string name);\r\n    event PatientRegistered(address indexed patientAddress, string name);\r\n    event HospitalRemoved(address indexed addresskey);\r\n    event RecordStored(uint256 indexed recordId, address indexed patientAddress, address indexed hospitalAddress);\r\n    event ConsentGranted(address indexed patientAddress, address indexed hospitalAddress);\r\n    event ConsentRevoked(address indexed patientAddress, address indexed hospitalAddress);\r\n    event RecordRetrieved(address indexed patientAddress, uint256 recordCount);\r\n\r\n    struct Hospital {\r\n        uint256 id;\r\n        string name;\r\n        string location;\r\n        address hospitalAddress;\r\n    }\r\n\r\n    struct Patient {\r\n        uint256 id;\r\n        string name;\r\n        address patientAddress;\r\n        address hospitalAddress;\r\n    }\r\n\r\n    struct Record {\r\n        uint256 id;\r\n        address patientAddress;\r\n        address hospitalAddress;\r\n        string encryptedData;\r\n        string encryptionKey;\r\n    }\r\n\r\n    struct Consent {\r\n        address hospitalAddress;\r\n        address patientAddress;\r\n        bool consentGiven;\r\n        string message;\r\n    }\r\n\r\n    Consent[] public consents;\r\n\r\n    constructor() {\r\n        _setupRole(ADMIN_ROLE, Admin);\r\n    }\r\n\r\n    //working\r\n    function registerHospital(string memory name, address addresskey, string memory location) public {\r\n        require(hospitals[addresskey].id == 0, \"Hospital already registered\");\r\n        _hospitalCounter.increment();\r\n        uint256 hospitalId = _hospitalCounter.current();\r\n        hospitals[addresskey] = Hospital(hospitalId, name, location, addresskey);\r\n        hospitalAddresses.push(addresskey);\r\n        _setupRole(HOSPITAL_ROLE, addresskey);\r\n        emit HospitalRegistered(addresskey, name);\r\n    }\r\n\r\n    //working\r\n    function registerPatient(string memory name, address addresskey, address hospitalAddress) public {\r\n        _patientCounter.increment();\r\n        uint256 patientId = _patientCounter.current();\r\n        \r\n        Patient memory newPatient = Patient(\r\n            patientId,\r\n            name,\r\n            addresskey,\r\n            hospitalAddress\r\n        );\r\n        \r\n        patients[addresskey].push(newPatient);\r\n        \r\n        if (patients[addresskey].length == 1) {\r\n            patientAddresses.push(addresskey);\r\n        }\r\n        \r\n        _setupRole(PATIENT_ROLE, addresskey);\r\n        emit PatientRegistered(addresskey, name);\r\n    }\r\n    \r\n\r\n    //working\r\n    function storeRecord(address patientAddress, string memory encryptedData, string memory encryptionKey) \r\n    public onlyRole(HOSPITAL_ROLE) \r\n    {\r\n        _recordCounter.increment();\r\n        uint256 recordId = _recordCounter.current();\r\n        address hospitalAddress = msg.sender;\r\n\r\n        // Store multiple records per patient\r\n        records[patientAddress].push(Record(recordId, patientAddress, hospitalAddress, encryptedData, encryptionKey));\r\n\r\n        recordses.push(patientAddress);\r\n        emit RecordStored(recordId, patientAddress, hospitalAddress);\r\n    }\r\n\r\n    //working\r\n    function getAllHospitals() public view returns (Hospital[] memory) {\r\n        Hospital[] memory allHospitals = new Hospital[](hospitalAddresses.length);\r\n        for (uint256 i = 0; i < hospitalAddresses.length; i++) {\r\n            allHospitals[i] = hospitals[hospitalAddresses[i]];\r\n        }\r\n        return allHospitals;\r\n    }\r\n\r\n    //working\r\n    function getAllPatients() public view returns (Patient[] memory) {\r\n        uint256 totalRegistrations = 0;\r\n        for (uint256 i = 0; i < patientAddresses.length; i++) {\r\n            totalRegistrations += patients[patientAddresses[i]].length;\r\n        }\r\n        Patient[] memory allPatients = new Patient[](totalRegistrations);\r\n        uint256 currentIndex = 0;\r\n    \r\n        for (uint256 i = 0; i < patientAddresses.length; i++) {\r\n            Patient[] memory patientRegistrations = patients[patientAddresses[i]];\r\n            for (uint256 j = 0; j < patientRegistrations.length; j++) {\r\n                allPatients[currentIndex] = patientRegistrations[j];\r\n                currentIndex++;\r\n            }\r\n        }\r\n        \r\n        return allPatients;\r\n    }\r\n\r\n    //working\r\n    function addConsent(address patientAddress, address hospitalAddress, bool consentGiven, string memory message) public onlyRole(HOSPITAL_ROLE) {\r\n        require(consentGiven == true, \"Consent value must be true\");\r\n        consents.push(Consent(hospitalAddress, patientAddress, consentGiven, message));\r\n    }\r\n\r\n    //working\r\n    function getConsents() public view returns (Consent[] memory) {\r\n        return consents;\r\n    }\r\n\r\n    //working\r\n     function grantConsent(address hospitalAddress) public onlyRole(PATIENT_ROLE) {\r\n        require(hasRole(HOSPITAL_ROLE, hospitalAddress), \"Invalid hospital address\");\r\n        require(!patientConsents[msg.sender][hospitalAddress], \"Consent already given\");\r\n        patientConsents[msg.sender][hospitalAddress] = true;\r\n        emit ConsentGranted(msg.sender, hospitalAddress);\r\n    }\r\n\r\n    //working\r\n    function revokeConsent(address hospitalAddress) public onlyRole(PATIENT_ROLE) {\r\n        require(hasRole(HOSPITAL_ROLE, hospitalAddress), \"Invalid hospital address\");\r\n        require(patientConsents[msg.sender][hospitalAddress], \"No consent given to this hospital\");\r\n        patientConsents[msg.sender][hospitalAddress] = false;\r\n        emit ConsentRevoked(msg.sender, hospitalAddress);\r\n    }\r\n\r\n    //working\r\n    function getPatientConsent(address patientAddress, address hospitalAddress) \r\n    public \r\n    view \r\n    returns (bool) \r\n    {\r\n        return patientConsents[patientAddress][hospitalAddress];\r\n    }\r\n\r\n    //working\r\n    function viewMyRecord(address patientAddress) \r\n        public \r\n        view \r\n        onlyRole(PATIENT_ROLE) \r\n        returns (Record[] memory) \r\n    {\r\n        require(msg.sender == patientAddress, \"Can only view own records\");\r\n        require(records[patientAddress].length > 0, \"No records found\");\r\n        return records[patientAddress];\r\n    }\r\n\r\n    //working\r\n    function viewPatientData(address patientAddress) \r\n        public \r\n        view \r\n        onlyRole(HOSPITAL_ROLE) \r\n        returns (Record[] memory) \r\n    {\r\n        require(patientConsents[patientAddress][msg.sender], \"Access denied\");\r\n        require(records[patientAddress].length > 0, \"No records found\");\r\n        return records[patientAddress];\r\n    }\r\n\r\n\r\n}\r\n",
  "sourcePath": "E:\\GENXRVERSE\\products\\badrinath\\nextjs-erm-final\\contracts\\MedicalDataTransfer.sol",
  "compiler": {
    "name": "solc",
    "version": "0.8.19+commit.7dd6d404.Emscripten.clang"
  },
  "schemaVersion": "3.4.4",
  "updatedAt": "2025-01-30T09:31:06.827Z",
  "networkType": "ethereum",
  "devdoc": {
    "events": {
      "RoleAdminChanged(bytes32,bytes32,bytes32)": {
        "details": "Emitted when `newAdminRole` is set as ``role``'s admin role, replacing `previousAdminRole` `DEFAULT_ADMIN_ROLE` is the starting admin for all roles, despite {RoleAdminChanged} not being emitted signaling this. _Available since v3.1._"
      },
      "RoleGranted(bytes32,address,address)": {
        "details": "Emitted when `account` is granted `role`. `sender` is the account that originated the contract call, an admin role bearer except when using {AccessControl-_setupRole}."
      },
      "RoleRevoked(bytes32,address,address)": {
        "details": "Emitted when `account` is revoked `role`. `sender` is the account that originated the contract call:   - if using `revokeRole`, it is the admin role bearer   - if using `renounceRole`, it is the role bearer (i.e. `account`)"
      }
    },
    "kind": "dev",
    "methods": {
      "getRoleAdmin(bytes32)": {
        "details": "Returns the admin role that controls `role`. See {grantRole} and {revokeRole}. To change a role's admin, use {_setRoleAdmin}."
      },
      "grantRole(bytes32,address)": {
        "details": "Grants `role` to `account`. If `account` had not been already granted `role`, emits a {RoleGranted} event. Requirements: - the caller must have ``role``'s admin role. May emit a {RoleGranted} event."
      },
      "hasRole(bytes32,address)": {
        "details": "Returns `true` if `account` has been granted `role`."
      },
      "renounceRole(bytes32,address)": {
        "details": "Revokes `role` from the calling account. Roles are often managed via {grantRole} and {revokeRole}: this function's purpose is to provide a mechanism for accounts to lose their privileges if they are compromised (such as when a trusted device is misplaced). If the calling account had been revoked `role`, emits a {RoleRevoked} event. Requirements: - the caller must be `account`. May emit a {RoleRevoked} event."
      },
      "revokeRole(bytes32,address)": {
        "details": "Revokes `role` from `account`. If `account` had been granted `role`, emits a {RoleRevoked} event. Requirements: - the caller must have ``role``'s admin role. May emit a {RoleRevoked} event."
      },
      "supportsInterface(bytes4)": {
        "details": "See {IERC165-supportsInterface}."
      }
    },
    "version": 1
  },
  "userdoc": {
    "kind": "user",
    "methods": {},
    "version": 1
  }
}