{
  "contractName": "MedicalDataTransfer",
  "abi": [
    {
      "inputs": [],
      "stateMutability": "nonpayable",
      "type": "constructor"
    },
    {
      "anonymous": false,
      "inputs": [
        {
          "indexed": true,
          "internalType": "address",
          "name": "patientAddress",
          "type": "address"
        },
        {
          "indexed": true,
          "internalType": "address",
          "name": "hospitalAddress",
          "type": "address"
        }
      ],
      "name": "ConsentGranted",
      "type": "event"
    },
    {
      "anonymous": false,
      "inputs": [
        {
          "indexed": true,
          "internalType": "address",
          "name": "patientAddress",
          "type": "address"
        },
        {
          "indexed": true,
          "internalType": "address",
          "name": "hospitalAddress",
          "type": "address"
        }
      ],
      "name": "ConsentRevoked",
      "type": "event"
    },
    {
      "anonymous": false,
      "inputs": [
        {
          "indexed": true,
          "internalType": "address",
          "name": "hospitalAddress",
          "type": "address"
        },
        {
          "indexed": false,
          "internalType": "string",
          "name": "name",
          "type": "string"
        }
      ],
      "name": "HospitalRegistered",
      "type": "event"
    },
    {
      "anonymous": false,
      "inputs": [
        {
          "indexed": true,
          "internalType": "address",
          "name": "addresskey",
          "type": "address"
        }
      ],
      "name": "HospitalRemoved",
      "type": "event"
    },
    {
      "anonymous": false,
      "inputs": [
        {
          "indexed": true,
          "internalType": "address",
          "name": "patientAddress",
          "type": "address"
        },
        {
          "indexed": false,
          "internalType": "string",
          "name": "name",
          "type": "string"
        }
      ],
      "name": "PatientRegistered",
      "type": "event"
    },
    {
      "anonymous": false,
      "inputs": [
        {
          "indexed": true,
          "internalType": "address",
          "name": "patientAddress",
          "type": "address"
        },
        {
          "indexed": false,
          "internalType": "uint256",
          "name": "recordCount",
          "type": "uint256"
        }
      ],
      "name": "RecordRetrieved",
      "type": "event"
    },
    {
      "anonymous": false,
      "inputs": [
        {
          "indexed": true,
          "internalType": "uint256",
          "name": "recordId",
          "type": "uint256"
        },
        {
          "indexed": true,
          "internalType": "address",
          "name": "patientAddress",
          "type": "address"
        },
        {
          "indexed": true,
          "internalType": "address",
          "name": "hospitalAddress",
          "type": "address"
        }
      ],
      "name": "RecordStored",
      "type": "event"
    },
    {
      "anonymous": false,
      "inputs": [
        {
          "indexed": true,
          "internalType": "bytes32",
          "name": "role",
          "type": "bytes32"
        },
        {
          "indexed": true,
          "internalType": "bytes32",
          "name": "previousAdminRole",
          "type": "bytes32"
        },
        {
          "indexed": true,
          "internalType": "bytes32",
          "name": "newAdminRole",
          "type": "bytes32"
        }
      ],
      "name": "RoleAdminChanged",
      "type": "event"
    },
    {
      "anonymous": false,
      "inputs": [
        {
          "indexed": true,
          "internalType": "bytes32",
          "name": "role",
          "type": "bytes32"
        },
        {
          "indexed": true,
          "internalType": "address",
          "name": "account",
          "type": "address"
        },
        {
          "indexed": true,
          "internalType": "address",
          "name": "sender",
          "type": "address"
        }
      ],
      "name": "RoleGranted",
      "type": "event"
    },
    {
      "anonymous": false,
      "inputs": [
        {
          "indexed": true,
          "internalType": "bytes32",
          "name": "role",
          "type": "bytes32"
        },
        {
          "indexed": true,
          "internalType": "address",
          "name": "account",
          "type": "address"
        },
        {
          "indexed": true,
          "internalType": "address",
          "name": "sender",
          "type": "address"
        }
      ],
      "name": "RoleRevoked",
      "type": "event"
    },
    {
      "inputs": [],
      "name": "ADMIN_ROLE",
      "outputs": [
        {
          "internalType": "bytes32",
          "name": "",
          "type": "bytes32"
        }
      ],
      "stateMutability": "view",
      "type": "function",
      "constant": true
    },
    {
      "inputs": [],
      "name": "Admin",
      "outputs": [
        {
          "internalType": "address",
          "name": "",
          "type": "address"
        }
      ],
      "stateMutability": "view",
      "type": "function",
      "constant": true
    },
    {
      "inputs": [],
      "name": "DEFAULT_ADMIN_ROLE",
      "outputs": [
        {
          "internalType": "bytes32",
          "name": "",
          "type": "bytes32"
        }
      ],
      "stateMutability": "view",
      "type": "function",
      "constant": true
    },
    {
      "inputs": [],
      "name": "HOSPITAL_ROLE",
      "outputs": [
        {
          "internalType": "bytes32",
          "name": "",
          "type": "bytes32"
        }
      ],
      "stateMutability": "view",
      "type": "function",
      "constant": true
    },
    {
      "inputs": [],
      "name": "PATIENT_ROLE",
      "outputs": [
        {
          "internalType": "bytes32",
          "name": "",
          "type": "bytes32"
        }
      ],
      "stateMutability": "view",
      "type": "function",
      "constant": true
    },
    {
      "inputs": [
        {
          "internalType": "uint256",
          "name": "",
          "type": "uint256"
        }
      ],
      "name": "consents",
      "outputs": [
        {
          "internalType": "address",
          "name": "hospitalAddress",
          "type": "address"
        },
        {
          "internalType": "address",
          "name": "patientAddress",
          "type": "address"
        },
        {
          "internalType": "bool",
          "name": "consentGiven",
          "type": "bool"
        },
        {
          "internalType": "string",
          "name": "message",
          "type": "string"
        }
      ],
      "stateMutability": "view",
      "type": "function",
      "constant": true
    },
    {
      "inputs": [
        {
          "internalType": "bytes32",
          "name": "role",
          "type": "bytes32"
        }
      ],
      "name": "getRoleAdmin",
      "outputs": [
        {
          "internalType": "bytes32",
          "name": "",
          "type": "bytes32"
        }
      ],
      "stateMutability": "view",
      "type": "function",
      "constant": true
    },
    {
      "inputs": [
        {
          "internalType": "bytes32",
          "name": "role",
          "type": "bytes32"
        },
        {
          "internalType": "address",
          "name": "account",
          "type": "address"
        }
      ],
      "name": "grantRole",
      "outputs": [],
      "stateMutability": "nonpayable",
      "type": "function"
    },
    {
      "inputs": [
        {
          "internalType": "bytes32",
          "name": "role",
          "type": "bytes32"
        },
        {
          "internalType": "address",
          "name": "account",
          "type": "address"
        }
      ],
      "name": "hasRole",
      "outputs": [
        {
          "internalType": "bool",
          "name": "",
          "type": "bool"
        }
      ],
      "stateMutability": "view",
      "type": "function",
      "constant": true
    },
    {
      "inputs": [
        {
          "internalType": "uint256",
          "name": "",
          "type": "uint256"
        }
      ],
      "name": "hospitalAddresses",
      "outputs": [
        {
          "internalType": "address",
          "name": "",
          "type": "address"
        }
      ],
      "stateMutability": "view",
      "type": "function",
      "constant": true
    },
    {
      "inputs": [
        {
          "internalType": "address",
          "name": "",
          "type": "address"
        },
        {
          "internalType": "address",
          "name": "",
          "type": "address"
        }
      ],
      "name": "hospitalInterconnections",
      "outputs": [
        {
          "internalType": "bool",
          "name": "",
          "type": "bool"
        }
      ],
      "stateMutability": "view",
      "type": "function",
      "constant": true
    },
    {
      "inputs": [
        {
          "internalType": "address",
          "name": "",
          "type": "address"
        }
      ],
      "name": "hospitals",
      "outputs": [
        {
          "internalType": "uint256",
          "name": "id",
          "type": "uint256"
        },
        {
          "internalType": "string",
          "name": "name",
          "type": "string"
        },
        {
          "internalType": "string",
          "name": "location",
          "type": "string"
        },
        {
          "internalType": "address",
          "name": "hospitalAddress",
          "type": "address"
        }
      ],
      "stateMutability": "view",
      "type": "function",
      "constant": true
    },
    {
      "inputs": [
        {
          "internalType": "uint256",
          "name": "",
          "type": "uint256"
        }
      ],
      "name": "patientAddresses",
      "outputs": [
        {
          "internalType": "address",
          "name": "",
          "type": "address"
        }
      ],
      "stateMutability": "view",
      "type": "function",
      "constant": true
    },
    {
      "inputs": [
        {
          "internalType": "address",
          "name": "",
          "type": "address"
        },
        {
          "internalType": "address",
          "name": "",
          "type": "address"
        }
      ],
      "name": "patientConsents",
      "outputs": [
        {
          "internalType": "bool",
          "name": "",
          "type": "bool"
        }
      ],
      "stateMutability": "view",
      "type": "function",
      "constant": true
    },
    {
      "inputs": [
        {
          "internalType": "address",
          "name": "",
          "type": "address"
        },
        {
          "internalType": "uint256",
          "name": "",
          "type": "uint256"
        }
      ],
      "name": "patients",
      "outputs": [
        {
          "internalType": "uint256",
          "name": "id",
          "type": "uint256"
        },
        {
          "internalType": "string",
          "name": "name",
          "type": "string"
        },
        {
          "internalType": "address",
          "name": "patientAddress",
          "type": "address"
        },
        {
          "internalType": "address",
          "name": "hospitalAddress",
          "type": "address"
        }
      ],
      "stateMutability": "view",
      "type": "function",
      "constant": true
    },
    {
      "inputs": [
        {
          "internalType": "uint256",
          "name": "",
          "type": "uint256"
        }
      ],
      "name": "recordses",
      "outputs": [
        {
          "internalType": "address",
          "name": "",
          "type": "address"
        }
      ],
      "stateMutability": "view",
      "type": "function",
      "constant": true
    },
    {
      "inputs": [
        {
          "internalType": "bytes32",
          "name": "role",
          "type": "bytes32"
        },
        {
          "internalType": "address",
          "name": "account",
          "type": "address"
        }
      ],
      "name": "renounceRole",
      "outputs": [],
      "stateMutability": "nonpayable",
      "type": "function"
    },
    {
      "inputs": [
        {
          "internalType": "bytes32",
          "name": "role",
          "type": "bytes32"
        },
        {
          "internalType": "address",
          "name": "account",
          "type": "address"
        }
      ],
      "name": "revokeRole",
      "outputs": [],
      "stateMutability": "nonpayable",
      "type": "function"
    },
    {
      "inputs": [
        {
          "internalType": "bytes4",
          "name": "interfaceId",
          "type": "bytes4"
        }
      ],
      "name": "supportsInterface",
      "outputs": [
        {
          "internalType": "bool",
          "name": "",
          "type": "bool"
        }
      ],
      "stateMutability": "view",
      "type": "function",
      "constant": true
    },
    {
      "inputs": [
        {
          "internalType": "string",
          "name": "name",
          "type": "string"
        },
        {
          "internalType": "address",
          "name": "addresskey",
          "type": "address"
        },
        {
          "internalType": "string",
          "name": "location",
          "type": "string"
        }
      ],
      "name": "registerHospital",
      "outputs": [],
      "stateMutability": "nonpayable",
      "type": "function"
    },
    {
      "inputs": [
        {
          "internalType": "string",
          "name": "name",
          "type": "string"
        },
        {
          "internalType": "address",
          "name": "addresskey",
          "type": "address"
        },
        {
          "internalType": "address",
          "name": "hospitalAddress",
          "type": "address"
        }
      ],
      "name": "registerPatient",
      "outputs": [],
      "stateMutability": "nonpayable",
      "type": "function"
    },
    {
      "inputs": [
        {
          "internalType": "address",
          "name": "patientAddress",
          "type": "address"
        },
        {
          "internalType": "string",
          "name": "encryptedData",
          "type": "string"
        },
        {
          "internalType": "string",
          "name": "encryptionKey",
          "type": "string"
        }
      ],
      "name": "storeRecord",
      "outputs": [],
      "stateMutability": "nonpayable",
      "type": "function"
    },
    {
      "inputs": [],
      "name": "getAllHospitals",
      "outputs": [
        {
          "components": [
            {
              "internalType": "uint256",
              "name": "id",
              "type": "uint256"
            },
            {
              "internalType": "string",
              "name": "name",
              "type": "string"
            },
            {
              "internalType": "string",
              "name": "location",
              "type": "string"
            },
            {
              "internalType": "address",
              "name": "hospitalAddress",
              "type": "address"
            }
          ],
          "internalType": "struct MedicalDataTransfer.Hospital[]",
          "name": "",
          "type": "tuple[]"
        }
      ],
      "stateMutability": "view",
      "type": "function",
      "constant": true
    },
    {
      "inputs": [],
      "name": "getAllPatients",
      "outputs": [
        {
          "components": [
            {
              "internalType": "uint256",
              "name": "id",
              "type": "uint256"
            },
            {
              "internalType": "string",
              "name": "name",
              "type": "string"
            },
            {
              "internalType": "address",
              "name": "patientAddress",
              "type": "address"
            },
            {
              "internalType": "address",
              "name": "hospitalAddress",
              "type": "address"
            }
          ],
          "internalType": "struct MedicalDataTransfer.Patient[]",
          "name": "",
          "type": "tuple[]"
        }
      ],
      "stateMutability": "view",
      "type": "function",
      "constant": true
    },
    {
      "inputs": [
        {
          "internalType": "address",
          "name": "patientAddress",
          "type": "address"
        },
        {
          "internalType": "address",
          "name": "hospitalAddress",
          "type": "address"
        },
        {
          "internalType": "bool",
          "name": "consentGiven",
          "type": "bool"
        },
        {
          "internalType": "string",
          "name": "message",
          "type": "string"
        }
      ],
      "name": "addConsent",
      "outputs": [],
      "stateMutability": "nonpayable",
      "type": "function"
    },
    {
      "inputs": [],
      "name": "getConsents",
      "outputs": [
        {
          "components": [
            {
              "internalType": "address",
              "name": "hospitalAddress",
              "type": "address"
            },
            {
              "internalType": "address",
              "name": "patientAddress",
              "type": "address"
            },
            {
              "internalType": "bool",
              "name": "consentGiven",
              "type": "bool"
            },
            {
              "internalType": "string",
              "name": "message",
              "type": "string"
            }
          ],
          "internalType": "struct MedicalDataTransfer.Consent[]",
          "name": "",
          "type": "tuple[]"
        }
      ],
      "stateMutability": "view",
      "type": "function",
      "constant": true
    },
    {
      "inputs": [
        {
          "internalType": "address",
          "name": "hospitalAddress",
          "type": "address"
        }
      ],
      "name": "grantConsent",
      "outputs": [],
      "stateMutability": "nonpayable",
      "type": "function"
    },
    {
      "inputs": [
        {
          "internalType": "address",
          "name": "hospitalAddress",
          "type": "address"
        }
      ],
      "name": "revokeConsent",
      "outputs": [],
      "stateMutability": "nonpayable",
      "type": "function"
    },
    {
      "inputs": [
        {
          "internalType": "address",
          "name": "patientAddress",
          "type": "address"
        },
        {
          "internalType": "address",
          "name": "hospitalAddress",
          "type": "address"
        }
      ],
      "name": "getPatientConsent",
      "outputs": [
        {
          "internalType": "bool",
          "name": "",
          "type": "bool"
        }
      ],
      "stateMutability": "view",
      "type": "function",
      "constant": true
    },
    {
      "inputs": [
        {
          "internalType": "address",
          "name": "patientAddress",
          "type": "address"
        }
      ],
      "name": "viewMyRecord",
      "outputs": [
        {
          "components": [
            {
              "internalType": "uint256",
              "name": "id",
              "type": "uint256"
            },
            {
              "internalType": "address",
              "name": "patientAddress",
              "type": "address"
            },
            {
              "internalType": "address",
              "name": "hospitalAddress",
              "type": "address"
            },
            {
              "internalType": "string",
              "name": "encryptedData",
              "type": "string"
            },
            {
              "internalType": "string",
              "name": "encryptionKey",
              "type": "string"
            }
          ],
          "internalType": "struct MedicalDataTransfer.Record[]",
          "name": "",
          "type": "tuple[]"
        }
      ],
      "stateMutability": "view",
      "type": "function",
      "constant": true
    },
    {
      "inputs": [
        {
          "internalType": "address",
          "name": "patientAddress",
          "type": "address"
        }
      ],
      "name": "viewPatientData",
      "outputs": [
        {
          "components": [
            {
              "internalType": "uint256",
              "name": "id",
              "type": "uint256"
            },
            {
              "internalType": "address",
              "name": "patientAddress",
              "type": "address"
            },
            {
              "internalType": "address",
              "name": "hospitalAddress",
              "type": "address"
            },
            {
              "internalType": "string",
              "name": "encryptedData",
              "type": "string"
            },
            {
              "internalType": "string",
              "name": "encryptionKey",
              "type": "string"
            }
          ],
          "internalType": "struct MedicalDataTransfer.Record[]",
          "name": "",
          "type": "tuple[]"
        }
      ],
      "stateMutability": "view",
      "type": "function",
      "constant": true
    }
  ],
  "bytecode": "0x608060405273a500301371167fefbf7161b4b8ae5dcae6b7c11d600160006101000a81548173ffffffffffffffffffffffffffffffffffffffff021916908373ffffffffffffffffffffffffffffffffffffffff1602179055503480156200006657600080fd5b50620000bb7fa49807205ce4d355092ef5a8a18f56e8913cf4a201fbe287825b095693c21775600160009054906101000a900473ffffffffffffffffffffffffffffffffffffffff16620000c160201b60201c565b6200023a565b620000d38282620000d760201b60201c565b5050565b620000e98282620001c860201b60201c565b620001c457600160008084815260200190815260200160002060000160008373ffffffffffffffffffffffffffffffffffffffff1673ffffffffffffffffffffffffffffffffffffffff16815260200190815260200160002060006101000a81548160ff021916908315150217905550620001696200023260201b60201c565b73ffffffffffffffffffffffffffffffffffffffff168173ffffffffffffffffffffffffffffffffffffffff16837f2f8788117e7eff1d82e926ec794901d17c78024a50270940304540a733656f0d60405160405180910390a45b5050565b600080600084815260200190815260200160002060000160008373ffffffffffffffffffffffffffffffffffffffff1673ffffffffffffffffffffffffffffffffffffffff16815260200190815260200160002060009054906101000a900460ff16905092915050565b600033905090565b61484d806200024a6000396000f3fe608060405234801561001057600080fd5b50600436106101e55760003560e01c8063ac5cb97d1161010f578063d9ad2300116100a2578063f093cf8011610071578063f093cf80146105f4578063f6ba667814610627578063f7ca0af014610645578063ff1b636d14610661576101e5565b8063d9ad230014610548578063eb538cec14610578578063eefd694b146105a8578063f063d08d146105d8576101e5565b8063cf0f9c34116100de578063cf0f9c34146104c1578063d1a48627146104dd578063d547741f146104f9578063d557d53a14610515576101e5565b8063ac5cb97d14610427578063b40f169114610445578063bd8247bf14610475578063cbe4a459146104a5576101e5565b80636fb3bc7711610187578063977198f811610156578063977198f81461038a578063981bce3e146103ba578063a217fddf146103ed578063a79861f11461040b576101e5565b80636fb3bc77146102ee57806375b238fc1461031e5780637a97d6551461033c57806391d148541461035a576101e5565b8063293fda5a116101c3578063293fda5a146102685780632f2ff15d1461029857806336568abe146102b45780634e9f7154146102d0576101e5565b806301ffc9a7146101ea57806318a231a91461021a578063248a9ca314610238575b600080fd5b61020460048036038101906101ff9190613309565b61067f565b6040516102119190613351565b60405180910390f35b6102226106f9565b60405161022f9190613584565b60405180910390f35b610252600480360381019061024d91906135dc565b610abb565b60405161025f9190613618565b60405180910390f35b610282600480360381019061027d919061365f565b610ada565b60405161028f9190613351565b60405180910390f35b6102b260048036038101906102ad919061369f565b610b6e565b005b6102ce60048036038101906102c9919061369f565b610b8f565b005b6102d8610c12565b6040516102e5919061380b565b60405180910390f35b6103086004803603810190610303919061382d565b610ec6565b6040516103159190613999565b60405180910390f35b61032661125c565b6040516103339190613618565b60405180910390f35b610344611280565b6040516103519190613aef565b60405180910390f35b610374600480360381019061036f919061369f565b611438565b6040516103819190613351565b60405180910390f35b6103a4600480360381019061039f919061365f565b6114a2565b6040516103b19190613351565b60405180910390f35b6103d460048036038101906103cf9190613b3d565b6114d1565b6040516103e49493929190613be5565b60405180910390f35b6103f56115e6565b6040516104029190613618565b60405180910390f35b6104256004803603810190610420919061382d565b6115ed565b005b61042f61183d565b60405161043c9190613618565b60405180910390f35b61045f600480360381019061045a9190613c31565b611861565b60405161046c9190613c5e565b60405180910390f35b61048f600480360381019061048a919061382d565b6118a0565b60405161049c9190613999565b60405180910390f35b6104bf60048036038101906104ba9190613dae565b611c91565b005b6104db60048036038101906104d69190613e49565b611f48565b005b6104f760048036038101906104f2919061382d565b612107565b005b610513600480360381019061050e919061369f565b612356565b005b61052f600480360381019061052a9190613c31565b612377565b60405161053f9493929190613ecc565b60405180910390f35b610562600480360381019061055d9190613c31565b61248c565b60405161056f9190613c5e565b60405180910390f35b610592600480360381019061058d9190613c31565b6124cb565b60405161059f9190613c5e565b60405180910390f35b6105c260048036038101906105bd919061365f565b61250a565b6040516105cf9190613351565b60405180910390f35b6105f260048036038101906105ed9190613f18565b612539565b005b61060e6004803603810190610609919061382d565b6127bb565b60405161061e9493929190613fa3565b60405180910390f35b61062f61291b565b60405161063c9190613618565b60405180910390f35b61065f600480360381019061065a9190613ff6565b61293f565b005b610669612bdb565b6040516106769190613c5e565b60405180910390f35b60007f7965db0b000000000000000000000000000000000000000000000000000000007bffffffffffffffffffffffffffffffffffffffffffffffffffffffff1916827bffffffffffffffffffffffffffffffffffffffffffffffffffffffff191614806106f257506106f182612c01565b5b9050919050565b60606000805b600c805490508110156107ad5760066000600c838154811061072457610723614081565b5b9060005260206000200160009054906101000a900473ffffffffffffffffffffffffffffffffffffffff1673ffffffffffffffffffffffffffffffffffffffff1673ffffffffffffffffffffffffffffffffffffffff168152602001908152602001600020805490508261079891906140df565b915080806107a590614135565b9150506106ff565b5060008167ffffffffffffffff8111156107ca576107c9613c83565b5b60405190808252806020026020018201604052801561080357816020015b6107f0613168565b8152602001906001900390816107e85790505b5090506000805b600c80549050811015610ab157600060066000600c848154811061083157610830614081565b5b9060005260206000200160009054906101000a900473ffffffffffffffffffffffffffffffffffffffff1673ffffffffffffffffffffffffffffffffffffffff1673ffffffffffffffffffffffffffffffffffffffff168152602001908152602001600020805480602002602001604051908101604052809291908181526020016000905b82821015610a305783829060005260206000209060040201604051806080016040529081600082015481526020016001820180546108f3906141ad565b80601f016020809104026020016040519081016040528092919081815260200182805461091f906141ad565b801561096c5780601f106109415761010080835404028352916020019161096c565b820191906000526020600020905b81548152906001019060200180831161094f57829003601f168201915b505050505081526020016002820160009054906101000a900473ffffffffffffffffffffffffffffffffffffffff1673ffffffffffffffffffffffffffffffffffffffff1673ffffffffffffffffffffffffffffffffffffffff1681526020016003820160009054906101000a900473ffffffffffffffffffffffffffffffffffffffff1673ffffffffffffffffffffffffffffffffffffffff1673ffffffffffffffffffffffffffffffffffffffff1681525050815260200190600101906108b6565b50505050905060005b8151811015610a9c57818181518110610a5557610a54614081565b5b6020026020010151858581518110610a7057610a6f614081565b5b60200260200101819052508380610a8690614135565b9450508080610a9490614135565b915050610a39565b50508080610aa990614135565b91505061080a565b5081935050505090565b6000806000838152602001908152602001600020600101549050919050565b6000600960008473ffffffffffffffffffffffffffffffffffffffff1673ffffffffffffffffffffffffffffffffffffffff16815260200190815260200160002060008373ffffffffffffffffffffffffffffffffffffffff1673ffffffffffffffffffffffffffffffffffffffff16815260200190815260200160002060009054906101000a900460ff16905092915050565b610b7782610abb565b610b8081612c6b565b610b8a8383612c7f565b505050565b610b97612d5f565b73ffffffffffffffffffffffffffffffffffffffff168173ffffffffffffffffffffffffffffffffffffffff1614610c04576040517f08c379a0000000000000000000000000000000000000000000000000000000008152600401610bfb90614251565b60405180910390fd5b610c0e8282612d67565b5050565b60606000600b8054905067ffffffffffffffff811115610c3557610c34613c83565b5b604051908082528060200260200182016040528015610c6e57816020015b610c5b6131bc565b815260200190600190039081610c535790505b50905060005b600b80549050811015610ebe5760056000600b8381548110610c9957610c98614081565b5b9060005260206000200160009054906101000a900473ffffffffffffffffffffffffffffffffffffffff1673ffffffffffffffffffffffffffffffffffffffff1673ffffffffffffffffffffffffffffffffffffffff16815260200190815260200160002060405180608001604052908160008201548152602001600182018054610d23906141ad565b80601f0160208091040260200160405190810160405280929190818152602001828054610d4f906141ad565b8015610d9c5780601f10610d7157610100808354040283529160200191610d9c565b820191906000526020600020905b815481529060010190602001808311610d7f57829003601f168201915b50505050508152602001600282018054610db5906141ad565b80601f0160208091040260200160405190810160405280929190818152602001828054610de1906141ad565b8015610e2e5780601f10610e0357610100808354040283529160200191610e2e565b820191906000526020600020905b815481529060010190602001808311610e1157829003601f168201915b505050505081526020016003820160009054906101000a900473ffffffffffffffffffffffffffffffffffffffff1673ffffffffffffffffffffffffffffffffffffffff1673ffffffffffffffffffffffffffffffffffffffff1681525050828281518110610ea057610e9f614081565b5b60200260200101819052508080610eb690614135565b915050610c74565b508091505090565b60607f72606200fac42b7dc86b75901d61ecfab2a4a1a6eded478b97a428094891abed610ef281612c6b565b8273ffffffffffffffffffffffffffffffffffffffff163373ffffffffffffffffffffffffffffffffffffffff1614610f60576040517f08c379a0000000000000000000000000000000000000000000000000000000008152600401610f57906142bd565b60405180910390fd5b6000600760008573ffffffffffffffffffffffffffffffffffffffff1673ffffffffffffffffffffffffffffffffffffffff1681526020019081526020016000208054905011610fe5576040517f08c379a0000000000000000000000000000000000000000000000000000000008152600401610fdc90614329565b60405180910390fd5b600760008473ffffffffffffffffffffffffffffffffffffffff1673ffffffffffffffffffffffffffffffffffffffff168152602001908152602001600020805480602002602001604051908101604052809291908181526020016000905b8282101561125057838290600052602060002090600502016040518060a0016040529081600082015481526020016001820160009054906101000a900473ffffffffffffffffffffffffffffffffffffffff1673ffffffffffffffffffffffffffffffffffffffff1673ffffffffffffffffffffffffffffffffffffffff1681526020016002820160009054906101000a900473ffffffffffffffffffffffffffffffffffffffff1673ffffffffffffffffffffffffffffffffffffffff1673ffffffffffffffffffffffffffffffffffffffff16815260200160038201805461112d906141ad565b80601f0160208091040260200160405190810160405280929190818152602001828054611159906141ad565b80156111a65780601f1061117b576101008083540402835291602001916111a6565b820191906000526020600020905b81548152906001019060200180831161118957829003601f168201915b505050505081526020016004820180546111bf906141ad565b80601f01602080910402602001604051908101604052809291908181526020018280546111eb906141ad565b80156112385780601f1061120d57610100808354040283529160200191611238565b820191906000526020600020905b81548152906001019060200180831161121b57829003601f168201915b50505050508152505081526020019060010190611044565b50505050915050919050565b7fa49807205ce4d355092ef5a8a18f56e8913cf4a201fbe287825b095693c2177581565b6060600e805480602002602001604051908101604052809291908181526020016000905b8282101561142f57838290600052602060002090600302016040518060800160405290816000820160009054906101000a900473ffffffffffffffffffffffffffffffffffffffff1673ffffffffffffffffffffffffffffffffffffffff1673ffffffffffffffffffffffffffffffffffffffff1681526020016001820160009054906101000a900473ffffffffffffffffffffffffffffffffffffffff1673ffffffffffffffffffffffffffffffffffffffff1673ffffffffffffffffffffffffffffffffffffffff1681526020016001820160149054906101000a900460ff1615151515815260200160028201805461139e906141ad565b80601f01602080910402602001604051908101604052809291908181526020018280546113ca906141ad565b80156114175780601f106113ec57610100808354040283529160200191611417565b820191906000526020600020905b8154815290600101906020018083116113fa57829003601f168201915b505050505081525050815260200190600101906112a4565b50505050905090565b600080600084815260200190815260200160002060000160008373ffffffffffffffffffffffffffffffffffffffff1673ffffffffffffffffffffffffffffffffffffffff16815260200190815260200160002060009054906101000a900460ff16905092915050565b60086020528160005260406000206020528060005260406000206000915091509054906101000a900460ff1681565b600660205281600052604060002081815481106114ed57600080fd5b906000526020600020906004020160009150915050806000015490806001018054611517906141ad565b80601f0160208091040260200160405190810160405280929190818152602001828054611543906141ad565b80156115905780601f1061156557610100808354040283529160200191611590565b820191906000526020600020905b81548152906001019060200180831161157357829003601f168201915b5050505050908060020160009054906101000a900473ffffffffffffffffffffffffffffffffffffffff16908060030160009054906101000a900473ffffffffffffffffffffffffffffffffffffffff16905084565b6000801b81565b7f72606200fac42b7dc86b75901d61ecfab2a4a1a6eded478b97a428094891abed61161781612c6b565b6116417fc8f5b4140cca307cd927e59cbeea8291bffeee228fc677f0fa059aef7b4dd8d583611438565b611680576040517f08c379a000000000000000000000000000000000000000000000000000000000815260040161167790614395565b60405180910390fd5b600960003373ffffffffffffffffffffffffffffffffffffffff1673ffffffffffffffffffffffffffffffffffffffff16815260200190815260200160002060008373ffffffffffffffffffffffffffffffffffffffff1673ffffffffffffffffffffffffffffffffffffffff16815260200190815260200160002060009054906101000a900460ff161561174a576040517f08c379a000000000000000000000000000000000000000000000000000000000815260040161174190614401565b60405180910390fd5b6001600960003373ffffffffffffffffffffffffffffffffffffffff1673ffffffffffffffffffffffffffffffffffffffff16815260200190815260200160002060008473ffffffffffffffffffffffffffffffffffffffff1673ffffffffffffffffffffffffffffffffffffffff16815260200190815260200160002060006101000a81548160ff0219169083151502179055508173ffffffffffffffffffffffffffffffffffffffff163373ffffffffffffffffffffffffffffffffffffffff167f8105c574d2239a3a4f73f5efc5bc253cffb275647df535adfa2c240739cc922060405160405180910390a35050565b7f72606200fac42b7dc86b75901d61ecfab2a4a1a6eded478b97a428094891abed81565b600c818154811061187157600080fd5b906000526020600020016000915054906101000a900473ffffffffffffffffffffffffffffffffffffffff1681565b60607fc8f5b4140cca307cd927e59cbeea8291bffeee228fc677f0fa059aef7b4dd8d56118cc81612c6b565b600960008473ffffffffffffffffffffffffffffffffffffffff1673ffffffffffffffffffffffffffffffffffffffff16815260200190815260200160002060003373ffffffffffffffffffffffffffffffffffffffff1673ffffffffffffffffffffffffffffffffffffffff16815260200190815260200160002060009054906101000a900460ff16611995576040517f08c379a000000000000000000000000000000000000000000000000000000000815260040161198c9061446d565b60405180910390fd5b6000600760008573ffffffffffffffffffffffffffffffffffffffff1673ffffffffffffffffffffffffffffffffffffffff1681526020019081526020016000208054905011611a1a576040517f08c379a0000000000000000000000000000000000000000000000000000000008152600401611a1190614329565b60405180910390fd5b600760008473ffffffffffffffffffffffffffffffffffffffff1673ffffffffffffffffffffffffffffffffffffffff168152602001908152602001600020805480602002602001604051908101604052809291908181526020016000905b82821015611c8557838290600052602060002090600502016040518060a0016040529081600082015481526020016001820160009054906101000a900473ffffffffffffffffffffffffffffffffffffffff1673ffffffffffffffffffffffffffffffffffffffff1673ffffffffffffffffffffffffffffffffffffffff1681526020016002820160009054906101000a900473ffffffffffffffffffffffffffffffffffffffff1673ffffffffffffffffffffffffffffffffffffffff1673ffffffffffffffffffffffffffffffffffffffff168152602001600382018054611b62906141ad565b80601f0160208091040260200160405190810160405280929190818152602001828054611b8e906141ad565b8015611bdb5780601f10611bb057610100808354040283529160200191611bdb565b820191906000526020600020905b815481529060010190602001808311611bbe57829003601f168201915b50505050508152602001600482018054611bf4906141ad565b80601f0160208091040260200160405190810160405280929190818152602001828054611c20906141ad565b8015611c6d5780601f10611c4257610100808354040283529160200191611c6d565b820191906000526020600020905b815481529060010190602001808311611c5057829003601f168201915b50505050508152505081526020019060010190611a79565b50505050915050919050565b611c9b6003612e48565b6000611ca76003612e5e565b9050600060405180608001604052808381526020018681526020018573ffffffffffffffffffffffffffffffffffffffff1681526020018473ffffffffffffffffffffffffffffffffffffffff168152509050600660008573ffffffffffffffffffffffffffffffffffffffff1673ffffffffffffffffffffffffffffffffffffffff168152602001908152602001600020819080600181540180825580915050600190039060005260206000209060040201600090919091909150600082015181600001556020820151816001019080519060200190611d899291906131fa565b5060408201518160020160006101000a81548173ffffffffffffffffffffffffffffffffffffffff021916908373ffffffffffffffffffffffffffffffffffffffff16021790555060608201518160030160006101000a81548173ffffffffffffffffffffffffffffffffffffffff021916908373ffffffffffffffffffffffffffffffffffffffff16021790555050506001600660008673ffffffffffffffffffffffffffffffffffffffff1673ffffffffffffffffffffffffffffffffffffffff168152602001908152602001600020805490501415611ec957600c849080600181540180825580915050600190039060005260206000200160009091909190916101000a81548173ffffffffffffffffffffffffffffffffffffffff021916908373ffffffffffffffffffffffffffffffffffffffff1602179055505b611ef37f72606200fac42b7dc86b75901d61ecfab2a4a1a6eded478b97a428094891abed85612e6c565b8373ffffffffffffffffffffffffffffffffffffffff167fc85b128388b9c331a2a5485dce4cd0f3db9f7c279d327ce95d6d39d6c94644c786604051611f39919061448d565b60405180910390a25050505050565b7fc8f5b4140cca307cd927e59cbeea8291bffeee228fc677f0fa059aef7b4dd8d5611f7281612c6b565b6001151583151514611fb9576040517f08c379a0000000000000000000000000000000000000000000000000000000008152600401611fb0906144fb565b60405180910390fd5b600e60405180608001604052808673ffffffffffffffffffffffffffffffffffffffff1681526020018773ffffffffffffffffffffffffffffffffffffffff168152602001851515815260200184815250908060018154018082558091505060019003906000526020600020906003020160009091909190915060008201518160000160006101000a81548173ffffffffffffffffffffffffffffffffffffffff021916908373ffffffffffffffffffffffffffffffffffffffff16021790555060208201518160010160006101000a81548173ffffffffffffffffffffffffffffffffffffffff021916908373ffffffffffffffffffffffffffffffffffffffff16021790555060408201518160010160146101000a81548160ff02191690831515021790555060608201518160020190805190602001906120fd9291906131fa565b5050505050505050565b7f72606200fac42b7dc86b75901d61ecfab2a4a1a6eded478b97a428094891abed61213181612c6b565b61215b7fc8f5b4140cca307cd927e59cbeea8291bffeee228fc677f0fa059aef7b4dd8d583611438565b61219a576040517f08c379a000000000000000000000000000000000000000000000000000000000815260040161219190614395565b60405180910390fd5b600960003373ffffffffffffffffffffffffffffffffffffffff1673ffffffffffffffffffffffffffffffffffffffff16815260200190815260200160002060008373ffffffffffffffffffffffffffffffffffffffff1673ffffffffffffffffffffffffffffffffffffffff16815260200190815260200160002060009054906101000a900460ff16612263576040517f08c379a000000000000000000000000000000000000000000000000000000000815260040161225a9061458d565b60405180910390fd5b6000600960003373ffffffffffffffffffffffffffffffffffffffff1673ffffffffffffffffffffffffffffffffffffffff16815260200190815260200160002060008473ffffffffffffffffffffffffffffffffffffffff1673ffffffffffffffffffffffffffffffffffffffff16815260200190815260200160002060006101000a81548160ff0219169083151502179055508173ffffffffffffffffffffffffffffffffffffffff163373ffffffffffffffffffffffffffffffffffffffff167febecee2d3f2ea272f73dd9d9ccc0bacd11280d61240332cbcd8a68173ae5cc2c60405160405180910390a35050565b61235f82610abb565b61236881612c6b565b6123728383612d67565b505050565b600e818154811061238757600080fd5b90600052602060002090600302016000915090508060000160009054906101000a900473ffffffffffffffffffffffffffffffffffffffff16908060010160009054906101000a900473ffffffffffffffffffffffffffffffffffffffff16908060010160149054906101000a900460ff1690806002018054612409906141ad565b80601f0160208091040260200160405190810160405280929190818152602001828054612435906141ad565b80156124825780601f1061245757610100808354040283529160200191612482565b820191906000526020600020905b81548152906001019060200180831161246557829003601f168201915b5050505050905084565b600b818154811061249c57600080fd5b906000526020600020016000915054906101000a900473ffffffffffffffffffffffffffffffffffffffff1681565b600d81815481106124db57600080fd5b906000526020600020016000915054906101000a900473ffffffffffffffffffffffffffffffffffffffff1681565b60096020528160005260406000206020528060005260406000206000915091509054906101000a900460ff1681565b6000600560008473ffffffffffffffffffffffffffffffffffffffff1673ffffffffffffffffffffffffffffffffffffffff16815260200190815260200160002060000154146125be576040517f08c379a00000000000000000000000000000000000000000000000000000000081526004016125b5906145f9565b60405180910390fd5b6125c86002612e48565b60006125d46002612e5e565b905060405180608001604052808281526020018581526020018381526020018473ffffffffffffffffffffffffffffffffffffffff16815250600560008573ffffffffffffffffffffffffffffffffffffffff1673ffffffffffffffffffffffffffffffffffffffff1681526020019081526020016000206000820151816000015560208201518160010190805190602001906126729291906131fa565b50604082015181600201908051906020019061268f9291906131fa565b5060608201518160030160006101000a81548173ffffffffffffffffffffffffffffffffffffffff021916908373ffffffffffffffffffffffffffffffffffffffff160217905550905050600b839080600181540180825580915050600190039060005260206000200160009091909190916101000a81548173ffffffffffffffffffffffffffffffffffffffff021916908373ffffffffffffffffffffffffffffffffffffffff1602179055506127677fc8f5b4140cca307cd927e59cbeea8291bffeee228fc677f0fa059aef7b4dd8d584612e6c565b8273ffffffffffffffffffffffffffffffffffffffff167f72cefccb74b7edacb21023a72b39a2cecb1123ba70d1eea03d3509d046b941c2856040516127ad919061448d565b60405180910390a250505050565b60056020528060005260406000206000915090508060000154908060010180546127e4906141ad565b80601f0160208091040260200160405190810160405280929190818152602001828054612810906141ad565b801561285d5780601f106128325761010080835404028352916020019161285d565b820191906000526020600020905b81548152906001019060200180831161284057829003601f168201915b505050505090806002018054612872906141ad565b80601f016020809104026020016040519081016040528092919081815260200182805461289e906141ad565b80156128eb5780601f106128c0576101008083540402835291602001916128eb565b820191906000526020600020905b8154815290600101906020018083116128ce57829003601f168201915b5050505050908060030160009054906101000a900473ffffffffffffffffffffffffffffffffffffffff16905084565b7fc8f5b4140cca307cd927e59cbeea8291bffeee228fc677f0fa059aef7b4dd8d581565b7fc8f5b4140cca307cd927e59cbeea8291bffeee228fc677f0fa059aef7b4dd8d561296981612c6b565b6129736004612e48565b600061297f6004612e5e565b90506000339050600760008773ffffffffffffffffffffffffffffffffffffffff1673ffffffffffffffffffffffffffffffffffffffff1681526020019081526020016000206040518060a001604052808481526020018873ffffffffffffffffffffffffffffffffffffffff1681526020018373ffffffffffffffffffffffffffffffffffffffff1681526020018781526020018681525090806001815401808255809150506001900390600052602060002090600502016000909190919091506000820151816000015560208201518160010160006101000a81548173ffffffffffffffffffffffffffffffffffffffff021916908373ffffffffffffffffffffffffffffffffffffffff16021790555060408201518160020160006101000a81548173ffffffffffffffffffffffffffffffffffffffff021916908373ffffffffffffffffffffffffffffffffffffffff1602179055506060820151816003019080519060200190612af59291906131fa565b506080820151816004019080519060200190612b129291906131fa565b505050600d869080600181540180825580915050600190039060005260206000200160009091909190916101000a81548173ffffffffffffffffffffffffffffffffffffffff021916908373ffffffffffffffffffffffffffffffffffffffff1602179055508073ffffffffffffffffffffffffffffffffffffffff168673ffffffffffffffffffffffffffffffffffffffff16837f271f6d1a6ced511c825954686a627824819d9d0414ad24ab29f5a016a33f4ec760405160405180910390a4505050505050565b600160009054906101000a900473ffffffffffffffffffffffffffffffffffffffff1681565b60007f01ffc9a7000000000000000000000000000000000000000000000000000000007bffffffffffffffffffffffffffffffffffffffffffffffffffffffff1916827bffffffffffffffffffffffffffffffffffffffffffffffffffffffff1916149050919050565b612c7c81612c77612d5f565b612e7a565b50565b612c898282611438565b612d5b57600160008084815260200190815260200160002060000160008373ffffffffffffffffffffffffffffffffffffffff1673ffffffffffffffffffffffffffffffffffffffff16815260200190815260200160002060006101000a81548160ff021916908315150217905550612d00612d5f565b73ffffffffffffffffffffffffffffffffffffffff168173ffffffffffffffffffffffffffffffffffffffff16837f2f8788117e7eff1d82e926ec794901d17c78024a50270940304540a733656f0d60405160405180910390a45b5050565b600033905090565b612d718282611438565b15612e4457600080600084815260200190815260200160002060000160008373ffffffffffffffffffffffffffffffffffffffff1673ffffffffffffffffffffffffffffffffffffffff16815260200190815260200160002060006101000a81548160ff021916908315150217905550612de9612d5f565b73ffffffffffffffffffffffffffffffffffffffff168173ffffffffffffffffffffffffffffffffffffffff16837ff6391f5c32d9c69d2a47ea670b442974b53935d1edc7fd64eb21e047a839171b60405160405180910390a45b5050565b6001816000016000828254019250508190555050565b600081600001549050919050565b612e768282612c7f565b5050565b612e848282611438565b612efb57612e9181612eff565b612e9f8360001c6020612f2c565b604051602001612eb09291906146ed565b6040516020818303038152906040526040517f08c379a0000000000000000000000000000000000000000000000000000000008152600401612ef2919061448d565b60405180910390fd5b5050565b6060612f258273ffffffffffffffffffffffffffffffffffffffff16601460ff16612f2c565b9050919050565b606060006002836002612f3f9190614727565b612f4991906140df565b67ffffffffffffffff811115612f6257612f61613c83565b5b6040519080825280601f01601f191660200182016040528015612f945781602001600182028036833780820191505090505b5090507f300000000000000000000000000000000000000000000000000000000000000081600081518110612fcc57612fcb614081565b5b60200101907effffffffffffffffffffffffffffffffffffffffffffffffffffffffffffff1916908160001a9053507f7800000000000000000000000000000000000000000000000000000000000000816001815181106130305761302f614081565b5b60200101907effffffffffffffffffffffffffffffffffffffffffffffffffffffffffffff1916908160001a905350600060018460026130709190614727565b61307a91906140df565b90505b600181111561311a577f3031323334353637383961626364656600000000000000000000000000000000600f8616601081106130bc576130bb614081565b5b1a60f81b8282815181106130d3576130d2614081565b5b60200101907effffffffffffffffffffffffffffffffffffffffffffffffffffffffffffff1916908160001a905350600485901c94508061311390614781565b905061307d565b506000841461315e576040517f08c379a0000000000000000000000000000000000000000000000000000000008152600401613155906147f7565b60405180910390fd5b8091505092915050565b60405180608001604052806000815260200160608152602001600073ffffffffffffffffffffffffffffffffffffffff168152602001600073ffffffffffffffffffffffffffffffffffffffff1681525090565b6040518060800160405280600081526020016060815260200160608152602001600073ffffffffffffffffffffffffffffffffffffffff1681525090565b828054613206906141ad565b90600052602060002090601f016020900481019282613228576000855561326f565b82601f1061324157805160ff191683800117855561326f565b8280016001018555821561326f579182015b8281111561326e578251825591602001919060010190613253565b5b50905061327c9190613280565b5090565b5b80821115613299576000816000905550600101613281565b5090565b6000604051905090565b600080fd5b600080fd5b60007fffffffff0000000000000000000000000000000000000000000000000000000082169050919050565b6132e6816132b1565b81146132f157600080fd5b50565b600081359050613303816132dd565b92915050565b60006020828403121561331f5761331e6132a7565b5b600061332d848285016132f4565b91505092915050565b60008115159050919050565b61334b81613336565b82525050565b60006020820190506133666000830184613342565b92915050565b600081519050919050565b600082825260208201905092915050565b6000819050602082019050919050565b6000819050919050565b6133ab81613398565b82525050565b600081519050919050565b600082825260208201905092915050565b60005b838110156133eb5780820151818401526020810190506133d0565b838111156133fa576000848401525b50505050565b6000601f19601f8301169050919050565b600061341c826133b1565b61342681856133bc565b93506134368185602086016133cd565b61343f81613400565b840191505092915050565b600073ffffffffffffffffffffffffffffffffffffffff82169050919050565b60006134758261344a565b9050919050565b6134858161346a565b82525050565b60006080830160008301516134a360008601826133a2565b50602083015184820360208601526134bb8282613411565b91505060408301516134d0604086018261347c565b5060608301516134e3606086018261347c565b508091505092915050565b60006134fa838361348b565b905092915050565b6000602082019050919050565b600061351a8261336c565b6135248185613377565b93508360208202850161353685613388565b8060005b85811015613572578484038952815161355385826134ee565b945061355e83613502565b925060208a0199505060018101905061353a565b50829750879550505050505092915050565b6000602082019050818103600083015261359e818461350f565b905092915050565b6000819050919050565b6135b9816135a6565b81146135c457600080fd5b50565b6000813590506135d6816135b0565b92915050565b6000602082840312156135f2576135f16132a7565b5b6000613600848285016135c7565b91505092915050565b613612816135a6565b82525050565b600060208201905061362d6000830184613609565b92915050565b61363c8161346a565b811461364757600080fd5b50565b60008135905061365981613633565b92915050565b60008060408385031215613676576136756132a7565b5b60006136848582860161364a565b92505060206136958582860161364a565b9150509250929050565b600080604083850312156136b6576136b56132a7565b5b60006136c4858286016135c7565b92505060206136d58582860161364a565b9150509250929050565b600081519050919050565b600082825260208201905092915050565b6000819050602082019050919050565b600060808301600083015161372360008601826133a2565b506020830151848203602086015261373b8282613411565b915050604083015184820360408601526137558282613411565b915050606083015161376a606086018261347c565b508091505092915050565b6000613781838361370b565b905092915050565b6000602082019050919050565b60006137a1826136df565b6137ab81856136ea565b9350836020820285016137bd856136fb565b8060005b858110156137f957848403895281516137da8582613775565b94506137e583613789565b925060208a019950506001810190506137c1565b50829750879550505050505092915050565b600060208201905081810360008301526138258184613796565b905092915050565b600060208284031215613843576138426132a7565b5b60006138518482850161364a565b91505092915050565b600081519050919050565b600082825260208201905092915050565b6000819050602082019050919050565b600060a08301600083015161389e60008601826133a2565b5060208301516138b1602086018261347c565b5060408301516138c4604086018261347c565b50606083015184820360608601526138dc8282613411565b915050608083015184820360808601526138f68282613411565b9150508091505092915050565b600061390f8383613886565b905092915050565b6000602082019050919050565b600061392f8261385a565b6139398185613865565b93508360208202850161394b85613876565b8060005b8581101561398757848403895281516139688582613903565b945061397383613917565b925060208a0199505060018101905061394f565b50829750879550505050505092915050565b600060208201905081810360008301526139b38184613924565b905092915050565b600081519050919050565b600082825260208201905092915050565b6000819050602082019050919050565b6139f081613336565b82525050565b6000608083016000830151613a0e600086018261347c565b506020830151613a21602086018261347c565b506040830151613a3460408601826139e7565b5060608301518482036060860152613a4c8282613411565b9150508091505092915050565b6000613a6583836139f6565b905092915050565b6000602082019050919050565b6000613a85826139bb565b613a8f81856139c6565b935083602082028501613aa1856139d7565b8060005b85811015613add5784840389528151613abe8582613a59565b9450613ac983613a6d565b925060208a01995050600181019050613aa5565b50829750879550505050505092915050565b60006020820190508181036000830152613b098184613a7a565b905092915050565b613b1a81613398565b8114613b2557600080fd5b50565b600081359050613b3781613b11565b92915050565b60008060408385031215613b5457613b536132a7565b5b6000613b628582860161364a565b9250506020613b7385828601613b28565b9150509250929050565b613b8681613398565b82525050565b600082825260208201905092915050565b6000613ba8826133b1565b613bb28185613b8c565b9350613bc28185602086016133cd565b613bcb81613400565b840191505092915050565b613bdf8161346a565b82525050565b6000608082019050613bfa6000830187613b7d565b8181036020830152613c0c8186613b9d565b9050613c1b6040830185613bd6565b613c286060830184613bd6565b95945050505050565b600060208284031215613c4757613c466132a7565b5b6000613c5584828501613b28565b91505092915050565b6000602082019050613c736000830184613bd6565b92915050565b600080fd5b600080fd5b7f4e487b7100000000000000000000000000000000000000000000000000000000600052604160045260246000fd5b613cbb82613400565b810181811067ffffffffffffffff82111715613cda57613cd9613c83565b5b80604052505050565b6000613ced61329d565b9050613cf98282613cb2565b919050565b600067ffffffffffffffff821115613d1957613d18613c83565b5b613d2282613400565b9050602081019050919050565b82818337600083830152505050565b6000613d51613d4c84613cfe565b613ce3565b905082815260208101848484011115613d6d57613d6c613c7e565b5b613d78848285613d2f565b509392505050565b600082601f830112613d9557613d94613c79565b5b8135613da5848260208601613d3e565b91505092915050565b600080600060608486031215613dc757613dc66132a7565b5b600084013567ffffffffffffffff811115613de557613de46132ac565b5b613df186828701613d80565b9350506020613e028682870161364a565b9250506040613e138682870161364a565b9150509250925092565b613e2681613336565b8114613e3157600080fd5b50565b600081359050613e4381613e1d565b92915050565b60008060008060808587031215613e6357613e626132a7565b5b6000613e718782880161364a565b9450506020613e828782880161364a565b9350506040613e9387828801613e34565b925050606085013567ffffffffffffffff811115613eb457613eb36132ac565b5b613ec087828801613d80565b91505092959194509250565b6000608082019050613ee16000830187613bd6565b613eee6020830186613bd6565b613efb6040830185613342565b8181036060830152613f0d8184613b9d565b905095945050505050565b600080600060608486031215613f3157613f306132a7565b5b600084013567ffffffffffffffff811115613f4f57613f4e6132ac565b5b613f5b86828701613d80565b9350506020613f6c8682870161364a565b925050604084013567ffffffffffffffff811115613f8d57613f8c6132ac565b5b613f9986828701613d80565b9150509250925092565b6000608082019050613fb86000830187613b7d565b8181036020830152613fca8186613b9d565b90508181036040830152613fde8185613b9d565b9050613fed6060830184613bd6565b95945050505050565b60008060006060848603121561400f5761400e6132a7565b5b600061401d8682870161364a565b935050602084013567ffffffffffffffff81111561403e5761403d6132ac565b5b61404a86828701613d80565b925050604084013567ffffffffffffffff81111561406b5761406a6132ac565b5b61407786828701613d80565b9150509250925092565b7f4e487b7100000000000000000000000000000000000000000000000000000000600052603260045260246000fd5b7f4e487b7100000000000000000000000000000000000000000000000000000000600052601160045260246000fd5b60006140ea82613398565b91506140f583613398565b9250827fffffffffffffffffffffffffffffffffffffffffffffffffffffffffffffffff0382111561412a576141296140b0565b5b828201905092915050565b600061414082613398565b91507fffffffffffffffffffffffffffffffffffffffffffffffffffffffffffffffff821415614173576141726140b0565b5b600182019050919050565b7f4e487b7100000000000000000000000000000000000000000000000000000000600052602260045260246000fd5b600060028204905060018216806141c557607f821691505b602082108114156141d9576141d861417e565b5b50919050565b7f416363657373436f6e74726f6c3a2063616e206f6e6c792072656e6f756e636560008201527f20726f6c657320666f722073656c660000000000000000000000000000000000602082015250565b600061423b602f83613b8c565b9150614246826141df565b604082019050919050565b6000602082019050818103600083015261426a8161422e565b9050919050565b7f43616e206f6e6c792076696577206f776e207265636f72647300000000000000600082015250565b60006142a7601983613b8c565b91506142b282614271565b602082019050919050565b600060208201905081810360008301526142d68161429a565b9050919050565b7f4e6f207265636f72647320666f756e6400000000000000000000000000000000600082015250565b6000614313601083613b8c565b915061431e826142dd565b602082019050919050565b6000602082019050818103600083015261434281614306565b9050919050565b7f496e76616c696420686f73706974616c20616464726573730000000000000000600082015250565b600061437f601883613b8c565b915061438a82614349565b602082019050919050565b600060208201905081810360008301526143ae81614372565b9050919050565b7f436f6e73656e7420616c726561647920676976656e0000000000000000000000600082015250565b60006143eb601583613b8c565b91506143f6826143b5565b602082019050919050565b6000602082019050818103600083015261441a816143de565b9050919050565b7f4163636573732064656e69656400000000000000000000000000000000000000600082015250565b6000614457600d83613b8c565b915061446282614421565b602082019050919050565b600060208201905081810360008301526144868161444a565b9050919050565b600060208201905081810360008301526144a78184613b9d565b905092915050565b7f436f6e73656e742076616c7565206d7573742062652074727565000000000000600082015250565b60006144e5601a83613b8c565b91506144f0826144af565b602082019050919050565b60006020820190508181036000830152614514816144d8565b9050919050565b7f4e6f20636f6e73656e7420676976656e20746f207468697320686f737069746160008201527f6c00000000000000000000000000000000000000000000000000000000000000602082015250565b6000614577602183613b8c565b91506145828261451b565b604082019050919050565b600060208201905081810360008301526145a68161456a565b9050919050565b7f486f73706974616c20616c726561647920726567697374657265640000000000600082015250565b60006145e3601b83613b8c565b91506145ee826145ad565b602082019050919050565b60006020820190508181036000830152614612816145d6565b9050919050565b600081905092915050565b7f416363657373436f6e74726f6c3a206163636f756e7420000000000000000000600082015250565b600061465a601783614619565b915061466582614624565b601782019050919050565b600061467b826133b1565b6146858185614619565b93506146958185602086016133cd565b80840191505092915050565b7f206973206d697373696e6720726f6c6520000000000000000000000000000000600082015250565b60006146d7601183614619565b91506146e2826146a1565b601182019050919050565b60006146f88261464d565b91506147048285614670565b915061470f826146ca565b915061471b8284614670565b91508190509392505050565b600061473282613398565b915061473d83613398565b9250817fffffffffffffffffffffffffffffffffffffffffffffffffffffffffffffffff0483118215151615614776576147756140b0565b5b828202905092915050565b600061478c82613398565b915060008214156147a05761479f6140b0565b5b600182039050919050565b7f537472696e67733a20686578206c656e67746820696e73756666696369656e74600082015250565b60006147e1602083613b8c565b91506147ec826147ab565b602082019050919050565b60006020820190508181036000830152614810816147d4565b905091905056fea2646970667358221220fe7fd5faed04e2c8329d65e306c4da479ca5bee3f1ad37f8ac2e358151b4f9a664736f6c634300080c0033",
  "immutableReferences": {},
  "source": "// SPDX-License-Identifier: MIT\r\npragma solidity ^0.8.0;\r\n\r\nimport \"@openzeppelin/contracts/access/AccessControl.sol\";\r\nimport \"@openzeppelin/contracts/utils/Counters.sol\";\r\n\r\ncontract MedicalDataTransfer is AccessControl {\r\n    using Counters for Counters.Counter;\r\n\r\n    bytes32 public constant ADMIN_ROLE = keccak256(\"ADMIN_ROLE\");\r\n    bytes32 public constant HOSPITAL_ROLE = keccak256(\"HOSPITAL_ROLE\");\r\n    bytes32 public constant PATIENT_ROLE = keccak256(\"PATIENT_ROLE\");\r\n\r\n    address public Admin = 0xa500301371167FefBf7161B4b8Ae5dcAE6B7C11D;\r\n\r\n    Counters.Counter private _hospitalCounter;\r\n    Counters.Counter private _patientCounter;\r\n    Counters.Counter private _recordCounter;\r\n\r\n    mapping(address => Hospital) public hospitals;\r\n    mapping(address => Patient[]) public patients;\r\n    mapping(address => Record[]) private records;\r\n\r\n    mapping(address => mapping(address => bool)) public hospitalInterconnections;\r\n    mapping(address => mapping(address => bool)) public patientConsents;\r\n    mapping(address => address[]) private patientConsentHospitals;\r\n\r\n    address[] public hospitalAddresses;\r\n    address[] public patientAddresses;\r\n    address[] public recordses;\r\n\r\n    event HospitalRegistered(address indexed hospitalAddress, string name);\r\n    event PatientRegistered(address indexed patientAddress, string name);\r\n    event HospitalRemoved(address indexed addresskey);\r\n    event RecordStored(uint256 indexed recordId, address indexed patientAddress, address indexed hospitalAddress);\r\n    event ConsentGranted(address indexed patientAddress, address indexed hospitalAddress);\r\n    event ConsentRevoked(address indexed patientAddress, address indexed hospitalAddress);\r\n    event RecordRetrieved(address indexed patientAddress, uint256 recordCount);\r\n\r\n    struct Hospital {\r\n        uint256 id;\r\n        string name;\r\n        string location;\r\n        address hospitalAddress;\r\n    }\r\n\r\n    struct Patient {\r\n        uint256 id;\r\n        string name;\r\n        address patientAddress;\r\n        address hospitalAddress;\r\n    }\r\n\r\n    struct Record {\r\n        uint256 id;\r\n        address patientAddress;\r\n        address hospitalAddress;\r\n        string encryptedData;\r\n        string encryptionKey;\r\n    }\r\n\r\n    struct Consent {\r\n        address hospitalAddress;\r\n        address patientAddress;\r\n        bool consentGiven;\r\n        string message;\r\n    }\r\n\r\n    Consent[] public consents;\r\n\r\n    constructor() {\r\n        _setupRole(ADMIN_ROLE, Admin);\r\n    }\r\n\r\n    //working\r\n    function registerHospital(string memory name, address addresskey, string memory location) public {\r\n        require(hospitals[addresskey].id == 0, \"Hospital already registered\");\r\n        _hospitalCounter.increment();\r\n        uint256 hospitalId = _hospitalCounter.current();\r\n        hospitals[addresskey] = Hospital(hospitalId, name, location, addresskey);\r\n        hospitalAddresses.push(addresskey);\r\n        _setupRole(HOSPITAL_ROLE, addresskey);\r\n        emit HospitalRegistered(addresskey, name);\r\n    }\r\n\r\n    //working\r\n    function registerPatient(string memory name, address addresskey, address hospitalAddress) public {\r\n        _patientCounter.increment();\r\n        uint256 patientId = _patientCounter.current();\r\n        \r\n        Patient memory newPatient = Patient(\r\n            patientId,\r\n            name,\r\n            addresskey,\r\n            hospitalAddress\r\n        );\r\n        \r\n        patients[addresskey].push(newPatient);\r\n        \r\n        if (patients[addresskey].length == 1) {\r\n            patientAddresses.push(addresskey);\r\n        }\r\n        \r\n        _setupRole(PATIENT_ROLE, addresskey);\r\n        emit PatientRegistered(addresskey, name);\r\n    }\r\n    \r\n\r\n    //working\r\n    function storeRecord(address patientAddress, string memory encryptedData, string memory encryptionKey) \r\n    public onlyRole(HOSPITAL_ROLE) \r\n    {\r\n        _recordCounter.increment();\r\n        uint256 recordId = _recordCounter.current();\r\n        address hospitalAddress = msg.sender;\r\n\r\n        // Store multiple records per patient\r\n        records[patientAddress].push(Record(recordId, patientAddress, hospitalAddress, encryptedData, encryptionKey));\r\n\r\n        recordses.push(patientAddress);\r\n        emit RecordStored(recordId, patientAddress, hospitalAddress);\r\n    }\r\n\r\n    //working\r\n    function getAllHospitals() public view returns (Hospital[] memory) {\r\n        Hospital[] memory allHospitals = new Hospital[](hospitalAddresses.length);\r\n        for (uint256 i = 0; i < hospitalAddresses.length; i++) {\r\n            allHospitals[i] = hospitals[hospitalAddresses[i]];\r\n        }\r\n        return allHospitals;\r\n    }\r\n\r\n    //working\r\n    function getAllPatients() public view returns (Patient[] memory) {\r\n        uint256 totalRegistrations = 0;\r\n        for (uint256 i = 0; i < patientAddresses.length; i++) {\r\n            totalRegistrations += patients[patientAddresses[i]].length;\r\n        }\r\n        Patient[] memory allPatients = new Patient[](totalRegistrations);\r\n        uint256 currentIndex = 0;\r\n    \r\n        for (uint256 i = 0; i < patientAddresses.length; i++) {\r\n            Patient[] memory patientRegistrations = patients[patientAddresses[i]];\r\n            for (uint256 j = 0; j < patientRegistrations.length; j++) {\r\n                allPatients[currentIndex] = patientRegistrations[j];\r\n                currentIndex++;\r\n            }\r\n        }\r\n        \r\n        return allPatients;\r\n    }\r\n\r\n    //working\r\n    function addConsent(address patientAddress, address hospitalAddress, bool consentGiven, string memory message) public onlyRole(HOSPITAL_ROLE) {\r\n        require(consentGiven == true, \"Consent value must be true\");\r\n        consents.push(Consent(hospitalAddress, patientAddress, consentGiven, message));\r\n    }\r\n\r\n    //working\r\n    function getConsents() public view returns (Consent[] memory) {\r\n        return consents;\r\n    }\r\n\r\n    //working\r\n     function grantConsent(address hospitalAddress) public onlyRole(PATIENT_ROLE) {\r\n        require(hasRole(HOSPITAL_ROLE, hospitalAddress), \"Invalid hospital address\");\r\n        require(!patientConsents[msg.sender][hospitalAddress], \"Consent already given\");\r\n        patientConsents[msg.sender][hospitalAddress] = true;\r\n        emit ConsentGranted(msg.sender, hospitalAddress);\r\n    }\r\n\r\n    //working\r\n    function revokeConsent(address hospitalAddress) public onlyRole(PATIENT_ROLE) {\r\n        require(hasRole(HOSPITAL_ROLE, hospitalAddress), \"Invalid hospital address\");\r\n        require(patientConsents[msg.sender][hospitalAddress], \"No consent given to this hospital\");\r\n        patientConsents[msg.sender][hospitalAddress] = false;\r\n        emit ConsentRevoked(msg.sender, hospitalAddress);\r\n    }\r\n\r\n    //working\r\n    function getPatientConsent(address patientAddress, address hospitalAddress) \r\n    public \r\n    view \r\n    returns (bool) \r\n    {\r\n        return patientConsents[patientAddress][hospitalAddress];\r\n    }\r\n\r\n    //working\r\n    function viewMyRecord(address patientAddress) \r\n        public \r\n        view \r\n        onlyRole(PATIENT_ROLE) \r\n        returns (Record[] memory) \r\n    {\r\n        require(msg.sender == patientAddress, \"Can only view own records\");\r\n        require(records[patientAddress].length > 0, \"No records found\");\r\n        return records[patientAddress];\r\n    }\r\n\r\n    //working\r\n    function viewPatientData(address patientAddress) \r\n        public \r\n        view \r\n        onlyRole(HOSPITAL_ROLE) \r\n        returns (Record[] memory) \r\n    {\r\n        require(patientConsents[patientAddress][msg.sender], \"Access denied\");\r\n        require(records[patientAddress].length > 0, \"No records found\");\r\n        return records[patientAddress];\r\n    }\r\n\r\n\r\n}\r\n",
  "sourcePath": "D:\\Codes\\Projects\\meddatachain-blockchain\\contracts\\MedicalDataTransfer.sol",
  "compiler": {
    "name": "solc",
    "version": "0.8.12+commit.f00d7308.Emscripten.clang"
  },
  "schemaVersion": "3.4.16",
  "updatedAt": "2025-03-16T05:49:31.612Z",
  "networkType": "ethereum",
  "devdoc": {
    "kind": "dev",
    "methods": {
      "getRoleAdmin(bytes32)": {
        "details": "Returns the admin role that controls `role`. See {grantRole} and {revokeRole}. To change a role's admin, use {_setRoleAdmin}."
      },
      "grantRole(bytes32,address)": {
        "details": "Grants `role` to `account`. If `account` had not been already granted `role`, emits a {RoleGranted} event. Requirements: - the caller must have ``role``'s admin role. May emit a {RoleGranted} event."
      },
      "hasRole(bytes32,address)": {
        "details": "Returns `true` if `account` has been granted `role`."
      },
      "renounceRole(bytes32,address)": {
        "details": "Revokes `role` from the calling account. Roles are often managed via {grantRole} and {revokeRole}: this function's purpose is to provide a mechanism for accounts to lose their privileges if they are compromised (such as when a trusted device is misplaced). If the calling account had been revoked `role`, emits a {RoleRevoked} event. Requirements: - the caller must be `account`. May emit a {RoleRevoked} event."
      },
      "revokeRole(bytes32,address)": {
        "details": "Revokes `role` from `account`. If `account` had been granted `role`, emits a {RoleRevoked} event. Requirements: - the caller must have ``role``'s admin role. May emit a {RoleRevoked} event."
      },
      "supportsInterface(bytes4)": {
        "details": "See {IERC165-supportsInterface}."
      }
    },
    "version": 1
  },
  "userdoc": {
    "kind": "user",
    "methods": {},
    "version": 1
  }
}