{
  "contractName": "MedicalDataTransfer",
  "abi": [
    {
      "inputs": [],
      "stateMutability": "nonpayable",
      "type": "constructor"
    },
    {
      "anonymous": false,
      "inputs": [
        {
          "indexed": true,
          "internalType": "address",
          "name": "patientAddress",
          "type": "address"
        },
        {
          "indexed": true,
          "internalType": "address",
          "name": "hospitalAddress",
          "type": "address"
        }
      ],
      "name": "ConsentGranted",
      "type": "event"
    },
    {
      "anonymous": false,
      "inputs": [
        {
          "indexed": true,
          "internalType": "address",
          "name": "patientAddress",
          "type": "address"
        },
        {
          "indexed": true,
          "internalType": "address",
          "name": "hospitalAddress",
          "type": "address"
        }
      ],
      "name": "ConsentRevoked",
      "type": "event"
    },
    {
      "anonymous": false,
      "inputs": [
        {
          "indexed": true,
          "internalType": "address",
          "name": "hospitalAddress",
          "type": "address"
        },
        {
          "indexed": false,
          "internalType": "string",
          "name": "name",
          "type": "string"
        }
      ],
      "name": "HospitalRegistered",
      "type": "event"
    },
    {
      "anonymous": false,
      "inputs": [
        {
          "indexed": true,
          "internalType": "address",
          "name": "addresskey",
          "type": "address"
        }
      ],
      "name": "HospitalRemoved",
      "type": "event"
    },
    {
      "anonymous": false,
      "inputs": [
        {
          "indexed": true,
          "internalType": "address",
          "name": "patientAddress",
          "type": "address"
        },
        {
          "indexed": false,
          "internalType": "string",
          "name": "name",
          "type": "string"
        }
      ],
      "name": "PatientRegistered",
      "type": "event"
    },
    {
      "anonymous": false,
      "inputs": [
        {
          "indexed": true,
          "internalType": "address",
          "name": "patientAddress",
          "type": "address"
        },
        {
          "indexed": false,
          "internalType": "uint256",
          "name": "recordCount",
          "type": "uint256"
        }
      ],
      "name": "RecordRetrieved",
      "type": "event"
    },
    {
      "anonymous": false,
      "inputs": [
        {
          "indexed": true,
          "internalType": "uint256",
          "name": "recordId",
          "type": "uint256"
        },
        {
          "indexed": true,
          "internalType": "address",
          "name": "patientAddress",
          "type": "address"
        },
        {
          "indexed": true,
          "internalType": "address",
          "name": "hospitalAddress",
          "type": "address"
        }
      ],
      "name": "RecordStored",
      "type": "event"
    },
    {
      "anonymous": false,
      "inputs": [
        {
          "indexed": true,
          "internalType": "bytes32",
          "name": "role",
          "type": "bytes32"
        },
        {
          "indexed": true,
          "internalType": "bytes32",
          "name": "previousAdminRole",
          "type": "bytes32"
        },
        {
          "indexed": true,
          "internalType": "bytes32",
          "name": "newAdminRole",
          "type": "bytes32"
        }
      ],
      "name": "RoleAdminChanged",
      "type": "event"
    },
    {
      "anonymous": false,
      "inputs": [
        {
          "indexed": true,
          "internalType": "bytes32",
          "name": "role",
          "type": "bytes32"
        },
        {
          "indexed": true,
          "internalType": "address",
          "name": "account",
          "type": "address"
        },
        {
          "indexed": true,
          "internalType": "address",
          "name": "sender",
          "type": "address"
        }
      ],
      "name": "RoleGranted",
      "type": "event"
    },
    {
      "anonymous": false,
      "inputs": [
        {
          "indexed": true,
          "internalType": "bytes32",
          "name": "role",
          "type": "bytes32"
        },
        {
          "indexed": true,
          "internalType": "address",
          "name": "account",
          "type": "address"
        },
        {
          "indexed": true,
          "internalType": "address",
          "name": "sender",
          "type": "address"
        }
      ],
      "name": "RoleRevoked",
      "type": "event"
    },
    {
      "inputs": [],
      "name": "ADMIN_ROLE",
      "outputs": [
        {
          "internalType": "bytes32",
          "name": "",
          "type": "bytes32"
        }
      ],
      "stateMutability": "view",
      "type": "function",
      "constant": true
    },
    {
      "inputs": [],
      "name": "Admin",
      "outputs": [
        {
          "internalType": "address",
          "name": "",
          "type": "address"
        }
      ],
      "stateMutability": "view",
      "type": "function",
      "constant": true
    },
    {
      "inputs": [],
      "name": "DEFAULT_ADMIN_ROLE",
      "outputs": [
        {
          "internalType": "bytes32",
          "name": "",
          "type": "bytes32"
        }
      ],
      "stateMutability": "view",
      "type": "function",
      "constant": true
    },
    {
      "inputs": [],
      "name": "HOSPITAL_ROLE",
      "outputs": [
        {
          "internalType": "bytes32",
          "name": "",
          "type": "bytes32"
        }
      ],
      "stateMutability": "view",
      "type": "function",
      "constant": true
    },
    {
      "inputs": [],
      "name": "PATIENT_ROLE",
      "outputs": [
        {
          "internalType": "bytes32",
          "name": "",
          "type": "bytes32"
        }
      ],
      "stateMutability": "view",
      "type": "function",
      "constant": true
    },
    {
      "inputs": [
        {
          "internalType": "uint256",
          "name": "",
          "type": "uint256"
        }
      ],
      "name": "consents",
      "outputs": [
        {
          "internalType": "address",
          "name": "hospitalAddress",
          "type": "address"
        },
        {
          "internalType": "address",
          "name": "patientAddress",
          "type": "address"
        },
        {
          "internalType": "bool",
          "name": "consentGiven",
          "type": "bool"
        },
        {
          "internalType": "string",
          "name": "message",
          "type": "string"
        }
      ],
      "stateMutability": "view",
      "type": "function",
      "constant": true
    },
    {
      "inputs": [
        {
          "internalType": "bytes32",
          "name": "role",
          "type": "bytes32"
        }
      ],
      "name": "getRoleAdmin",
      "outputs": [
        {
          "internalType": "bytes32",
          "name": "",
          "type": "bytes32"
        }
      ],
      "stateMutability": "view",
      "type": "function",
      "constant": true
    },
    {
      "inputs": [
        {
          "internalType": "bytes32",
          "name": "role",
          "type": "bytes32"
        },
        {
          "internalType": "address",
          "name": "account",
          "type": "address"
        }
      ],
      "name": "grantRole",
      "outputs": [],
      "stateMutability": "nonpayable",
      "type": "function"
    },
    {
      "inputs": [
        {
          "internalType": "bytes32",
          "name": "role",
          "type": "bytes32"
        },
        {
          "internalType": "address",
          "name": "account",
          "type": "address"
        }
      ],
      "name": "hasRole",
      "outputs": [
        {
          "internalType": "bool",
          "name": "",
          "type": "bool"
        }
      ],
      "stateMutability": "view",
      "type": "function",
      "constant": true
    },
    {
      "inputs": [
        {
          "internalType": "uint256",
          "name": "",
          "type": "uint256"
        }
      ],
      "name": "hospitalAddresses",
      "outputs": [
        {
          "internalType": "address",
          "name": "",
          "type": "address"
        }
      ],
      "stateMutability": "view",
      "type": "function",
      "constant": true
    },
    {
      "inputs": [
        {
          "internalType": "address",
          "name": "",
          "type": "address"
        },
        {
          "internalType": "address",
          "name": "",
          "type": "address"
        }
      ],
      "name": "hospitalInterconnections",
      "outputs": [
        {
          "internalType": "bool",
          "name": "",
          "type": "bool"
        }
      ],
      "stateMutability": "view",
      "type": "function",
      "constant": true
    },
    {
      "inputs": [
        {
          "internalType": "address",
          "name": "",
          "type": "address"
        }
      ],
      "name": "hospitals",
      "outputs": [
        {
          "internalType": "uint256",
          "name": "id",
          "type": "uint256"
        },
        {
          "internalType": "string",
          "name": "name",
          "type": "string"
        },
        {
          "internalType": "string",
          "name": "location",
          "type": "string"
        },
        {
          "internalType": "address",
          "name": "hospitalAddress",
          "type": "address"
        }
      ],
      "stateMutability": "view",
      "type": "function",
      "constant": true
    },
    {
      "inputs": [
        {
          "internalType": "uint256",
          "name": "",
          "type": "uint256"
        }
      ],
      "name": "patientAddresses",
      "outputs": [
        {
          "internalType": "address",
          "name": "",
          "type": "address"
        }
      ],
      "stateMutability": "view",
      "type": "function",
      "constant": true
    },
    {
      "inputs": [
        {
          "internalType": "address",
          "name": "",
          "type": "address"
        },
        {
          "internalType": "address",
          "name": "",
          "type": "address"
        }
      ],
      "name": "patientConsents",
      "outputs": [
        {
          "internalType": "bool",
          "name": "",
          "type": "bool"
        }
      ],
      "stateMutability": "view",
      "type": "function",
      "constant": true
    },
    {
      "inputs": [
        {
          "internalType": "address",
          "name": "",
          "type": "address"
        },
        {
          "internalType": "uint256",
          "name": "",
          "type": "uint256"
        }
      ],
      "name": "patients",
      "outputs": [
        {
          "internalType": "uint256",
          "name": "id",
          "type": "uint256"
        },
        {
          "internalType": "string",
          "name": "name",
          "type": "string"
        },
        {
          "internalType": "address",
          "name": "patientAddress",
          "type": "address"
        },
        {
          "internalType": "address",
          "name": "hospitalAddress",
          "type": "address"
        },
        {
          "internalType": "string",
          "name": "dob",
          "type": "string"
        },
        {
          "internalType": "string",
          "name": "gender",
          "type": "string"
        },
        {
          "internalType": "string",
          "name": "bloodGroup",
          "type": "string"
        },
        {
          "internalType": "string",
          "name": "govId",
          "type": "string"
        },
        {
          "internalType": "string",
          "name": "phone",
          "type": "string"
        },
        {
          "internalType": "string",
          "name": "email",
          "type": "string"
        }
      ],
      "stateMutability": "view",
      "type": "function",
      "constant": true
    },
    {
      "inputs": [
        {
          "internalType": "uint256",
          "name": "",
          "type": "uint256"
        }
      ],
      "name": "recordses",
      "outputs": [
        {
          "internalType": "address",
          "name": "",
          "type": "address"
        }
      ],
      "stateMutability": "view",
      "type": "function",
      "constant": true
    },
    {
      "inputs": [
        {
          "internalType": "bytes32",
          "name": "role",
          "type": "bytes32"
        },
        {
          "internalType": "address",
          "name": "account",
          "type": "address"
        }
      ],
      "name": "renounceRole",
      "outputs": [],
      "stateMutability": "nonpayable",
      "type": "function"
    },
    {
      "inputs": [
        {
          "internalType": "bytes32",
          "name": "role",
          "type": "bytes32"
        },
        {
          "internalType": "address",
          "name": "account",
          "type": "address"
        }
      ],
      "name": "revokeRole",
      "outputs": [],
      "stateMutability": "nonpayable",
      "type": "function"
    },
    {
      "inputs": [
        {
          "internalType": "bytes4",
          "name": "interfaceId",
          "type": "bytes4"
        }
      ],
      "name": "supportsInterface",
      "outputs": [
        {
          "internalType": "bool",
          "name": "",
          "type": "bool"
        }
      ],
      "stateMutability": "view",
      "type": "function",
      "constant": true
    },
    {
      "inputs": [
        {
          "internalType": "string",
          "name": "name",
          "type": "string"
        },
        {
          "internalType": "address",
          "name": "addresskey",
          "type": "address"
        },
        {
          "internalType": "string",
          "name": "location",
          "type": "string"
        }
      ],
      "name": "registerHospital",
      "outputs": [],
      "stateMutability": "nonpayable",
      "type": "function"
    },
    {
      "inputs": [
        {
          "internalType": "string",
          "name": "name",
          "type": "string"
        },
        {
          "internalType": "address",
          "name": "addresskey",
          "type": "address"
        },
        {
          "internalType": "address",
          "name": "hospitalAddress",
          "type": "address"
        },
        {
          "internalType": "string",
          "name": "dob",
          "type": "string"
        },
        {
          "internalType": "string",
          "name": "gender",
          "type": "string"
        },
        {
          "internalType": "string",
          "name": "bloodGroup",
          "type": "string"
        },
        {
          "internalType": "string",
          "name": "govId",
          "type": "string"
        },
        {
          "internalType": "string",
          "name": "phone",
          "type": "string"
        },
        {
          "internalType": "string",
          "name": "email",
          "type": "string"
        }
      ],
      "name": "registerPatient",
      "outputs": [],
      "stateMutability": "nonpayable",
      "type": "function"
    },
    {
      "inputs": [
        {
          "internalType": "address",
          "name": "patientAddress",
          "type": "address"
        },
        {
          "internalType": "string",
          "name": "encryptedData",
          "type": "string"
        },
        {
          "internalType": "string",
          "name": "encryptionKey",
          "type": "string"
        }
      ],
      "name": "storeRecord",
      "outputs": [],
      "stateMutability": "nonpayable",
      "type": "function"
    },
    {
      "inputs": [],
      "name": "getAllHospitals",
      "outputs": [
        {
          "components": [
            {
              "internalType": "uint256",
              "name": "id",
              "type": "uint256"
            },
            {
              "internalType": "string",
              "name": "name",
              "type": "string"
            },
            {
              "internalType": "string",
              "name": "location",
              "type": "string"
            },
            {
              "internalType": "address",
              "name": "hospitalAddress",
              "type": "address"
            }
          ],
          "internalType": "struct MedicalDataTransfer.Hospital[]",
          "name": "",
          "type": "tuple[]"
        }
      ],
      "stateMutability": "view",
      "type": "function",
      "constant": true
    },
    {
      "inputs": [],
      "name": "getAllPatients",
      "outputs": [
        {
          "components": [
            {
              "internalType": "uint256",
              "name": "id",
              "type": "uint256"
            },
            {
              "internalType": "string",
              "name": "name",
              "type": "string"
            },
            {
              "internalType": "address",
              "name": "patientAddress",
              "type": "address"
            },
            {
              "internalType": "address",
              "name": "hospitalAddress",
              "type": "address"
            },
            {
              "internalType": "string",
              "name": "dob",
              "type": "string"
            },
            {
              "internalType": "string",
              "name": "gender",
              "type": "string"
            },
            {
              "internalType": "string",
              "name": "bloodGroup",
              "type": "string"
            },
            {
              "internalType": "string",
              "name": "govId",
              "type": "string"
            },
            {
              "internalType": "string",
              "name": "phone",
              "type": "string"
            },
            {
              "internalType": "string",
              "name": "email",
              "type": "string"
            }
          ],
          "internalType": "struct MedicalDataTransfer.Patient[]",
          "name": "",
          "type": "tuple[]"
        }
      ],
      "stateMutability": "view",
      "type": "function",
      "constant": true
    },
    {
      "inputs": [
        {
          "internalType": "address",
          "name": "patientAddress",
          "type": "address"
        },
        {
          "internalType": "address",
          "name": "hospitalAddress",
          "type": "address"
        },
        {
          "internalType": "bool",
          "name": "consentGiven",
          "type": "bool"
        },
        {
          "internalType": "string",
          "name": "message",
          "type": "string"
        }
      ],
      "name": "addConsent",
      "outputs": [],
      "stateMutability": "nonpayable",
      "type": "function"
    },
    {
      "inputs": [],
      "name": "getConsents",
      "outputs": [
        {
          "components": [
            {
              "internalType": "address",
              "name": "hospitalAddress",
              "type": "address"
            },
            {
              "internalType": "address",
              "name": "patientAddress",
              "type": "address"
            },
            {
              "internalType": "bool",
              "name": "consentGiven",
              "type": "bool"
            },
            {
              "internalType": "string",
              "name": "message",
              "type": "string"
            }
          ],
          "internalType": "struct MedicalDataTransfer.Consent[]",
          "name": "",
          "type": "tuple[]"
        }
      ],
      "stateMutability": "view",
      "type": "function",
      "constant": true
    },
    {
      "inputs": [
        {
          "internalType": "address",
          "name": "hospitalAddress",
          "type": "address"
        }
      ],
      "name": "grantConsent",
      "outputs": [],
      "stateMutability": "nonpayable",
      "type": "function"
    },
    {
      "inputs": [
        {
          "internalType": "address",
          "name": "hospitalAddress",
          "type": "address"
        }
      ],
      "name": "revokeConsent",
      "outputs": [],
      "stateMutability": "nonpayable",
      "type": "function"
    },
    {
      "inputs": [
        {
          "internalType": "address",
          "name": "patientAddress",
          "type": "address"
        },
        {
          "internalType": "address",
          "name": "hospitalAddress",
          "type": "address"
        }
      ],
      "name": "getPatientConsent",
      "outputs": [
        {
          "internalType": "bool",
          "name": "",
          "type": "bool"
        }
      ],
      "stateMutability": "view",
      "type": "function",
      "constant": true
    },
    {
      "inputs": [
        {
          "internalType": "address",
          "name": "patientAddress",
          "type": "address"
        }
      ],
      "name": "viewMyRecord",
      "outputs": [
        {
          "components": [
            {
              "internalType": "uint256",
              "name": "id",
              "type": "uint256"
            },
            {
              "internalType": "address",
              "name": "patientAddress",
              "type": "address"
            },
            {
              "internalType": "address",
              "name": "hospitalAddress",
              "type": "address"
            },
            {
              "internalType": "string",
              "name": "encryptedData",
              "type": "string"
            },
            {
              "internalType": "string",
              "name": "encryptionKey",
              "type": "string"
            }
          ],
          "internalType": "struct MedicalDataTransfer.Record[]",
          "name": "",
          "type": "tuple[]"
        }
      ],
      "stateMutability": "view",
      "type": "function",
      "constant": true
    },
    {
      "inputs": [
        {
          "internalType": "address",
          "name": "patientAddress",
          "type": "address"
        }
      ],
      "name": "viewPatientData",
      "outputs": [
        {
          "components": [
            {
              "internalType": "uint256",
              "name": "id",
              "type": "uint256"
            },
            {
              "internalType": "address",
              "name": "patientAddress",
              "type": "address"
            },
            {
              "internalType": "address",
              "name": "hospitalAddress",
              "type": "address"
            },
            {
              "internalType": "string",
              "name": "encryptedData",
              "type": "string"
            },
            {
              "internalType": "string",
              "name": "encryptionKey",
              "type": "string"
            }
          ],
          "internalType": "struct MedicalDataTransfer.Record[]",
          "name": "",
          "type": "tuple[]"
        }
      ],
      "stateMutability": "view",
      "type": "function",
      "constant": true
    }
  ],
  "bytecode": "0x608060405273a500301371167fefbf7161b4b8ae5dcae6b7c11d600160006101000a81548173ffffffffffffffffffffffffffffffffffffffff021916908373ffffffffffffffffffffffffffffffffffffffff1602179055503480156200006657600080fd5b50620000bb7fa49807205ce4d355092ef5a8a18f56e8913cf4a201fbe287825b095693c21775600160009054906101000a900473ffffffffffffffffffffffffffffffffffffffff16620000c160201b60201c565b6200023a565b620000d38282620000d760201b60201c565b5050565b620000e98282620001c860201b60201c565b620001c457600160008084815260200190815260200160002060000160008373ffffffffffffffffffffffffffffffffffffffff1673ffffffffffffffffffffffffffffffffffffffff16815260200190815260200160002060006101000a81548160ff021916908315150217905550620001696200023260201b60201c565b73ffffffffffffffffffffffffffffffffffffffff168173ffffffffffffffffffffffffffffffffffffffff16837f2f8788117e7eff1d82e926ec794901d17c78024a50270940304540a733656f0d60405160405180910390a45b5050565b600080600084815260200190815260200160002060000160008373ffffffffffffffffffffffffffffffffffffffff1673ffffffffffffffffffffffffffffffffffffffff16815260200190815260200160002060009054906101000a900460ff16905092915050565b600033905090565b61525b806200024a6000396000f3fe608060405234801561001057600080fd5b50600436106101e55760003560e01c8063a79861f11161010f578063d9ad2300116100a2578063f093cf8011610071578063f093cf80146105fa578063f6ba66781461062d578063f7ca0af01461064b578063ff1b636d14610667576101e5565b8063d9ad23001461054e578063eb538cec1461057e578063eefd694b146105ae578063f063d08d146105de576101e5565b8063cf0f9c34116100de578063cf0f9c34146104c7578063d1a48627146104e3578063d547741f146104ff578063d557d53a1461051b576101e5565b8063a79861f11461042d578063ac5cb97d14610449578063b40f169114610467578063bd8247bf14610497576101e5565b80634e9f71541161018757806391d148541161015657806391d1485414610376578063977198f8146103a6578063981bce3e146103d6578063a217fddf1461040f576101e5565b80634e9f7154146102ec5780636fb3bc771461030a57806375b238fc1461033a5780637a97d65514610358576101e5565b8063293fda5a116101c3578063293fda5a146102685780632f2ff15d1461029857806336568abe146102b45780633804cf86146102d0576101e5565b806301ffc9a7146101ea57806318a231a91461021a578063248a9ca314610238575b600080fd5b61020460048036038101906101ff9190613ad6565b610685565b6040516102119190613b1e565b60405180910390f35b6102226106ff565b60405161022f9190613df2565b60405180910390f35b610252600480360381019061024d9190613e4a565b610e2e565b60405161025f9190613e86565b60405180910390f35b610282600480360381019061027d9190613ecd565b610e4d565b60405161028f9190613b1e565b60405180910390f35b6102b260048036038101906102ad9190613f0d565b610ee1565b005b6102ce60048036038101906102c99190613f0d565b610f02565b005b6102ea60048036038101906102e59190614082565b610f85565b005b6102f4611317565b604051610301919061433c565b60405180910390f35b610324600480360381019061031f919061435e565b6115cb565b60405161033191906144ca565b60405180910390f35b610342611961565b60405161034f9190613e86565b60405180910390f35b610360611985565b60405161036d9190614620565b60405180910390f35b610390600480360381019061038b9190613f0d565b611b3d565b60405161039d9190613b1e565b60405180910390f35b6103c060048036038101906103bb9190613ecd565b611ba7565b6040516103cd9190613b1e565b60405180910390f35b6103f060048036038101906103eb919061466e565b611bd6565b6040516104069a99989796959493929190614716565b60405180910390f35b61041761203f565b6040516104249190613e86565b60405180910390f35b6104476004803603810190610442919061435e565b612046565b005b610451612296565b60405161045e9190613e86565b60405180910390f35b610481600480360381019061047c91906147e3565b6122ba565b60405161048e9190614810565b60405180910390f35b6104b160048036038101906104ac919061435e565b6122f9565b6040516104be91906144ca565b60405180910390f35b6104e160048036038101906104dc9190614857565b6126ea565b005b6104fd60048036038101906104f8919061435e565b6128a9565b005b61051960048036038101906105149190613f0d565b612af8565b005b610535600480360381019061053091906147e3565b612b19565b60405161054594939291906148da565b60405180910390f35b610568600480360381019061056391906147e3565b612c2e565b6040516105759190614810565b60405180910390f35b610598600480360381019061059391906147e3565b612c6d565b6040516105a59190614810565b60405180910390f35b6105c860048036038101906105c39190613ecd565b612cac565b6040516105d59190613b1e565b60405180910390f35b6105f860048036038101906105f39190614926565b612cdb565b005b610614600480360381019061060f919061435e565b612f5d565b60405161062494939291906149b1565b60405180910390f35b6106356130bd565b6040516106429190613e86565b60405180910390f35b61066560048036038101906106609190614a04565b6130e1565b005b61066f61337d565b60405161067c9190614810565b60405180910390f35b60007f7965db0b000000000000000000000000000000000000000000000000000000007bffffffffffffffffffffffffffffffffffffffffffffffffffffffff1916827bffffffffffffffffffffffffffffffffffffffffffffffffffffffff191614806106f857506106f7826133a3565b5b9050919050565b60606000805b600c805490508110156107b35760066000600c838154811061072a57610729614a8f565b5b9060005260206000200160009054906101000a900473ffffffffffffffffffffffffffffffffffffffff1673ffffffffffffffffffffffffffffffffffffffff1673ffffffffffffffffffffffffffffffffffffffff168152602001908152602001600020805490508261079e9190614aed565b915080806107ab90614b43565b915050610705565b5060008167ffffffffffffffff8111156107d0576107cf613f57565b5b60405190808252806020026020018201604052801561080957816020015b6107f661390a565b8152602001906001900390816107ee5790505b5090506000805b600c80549050811015610e2457600060066000600c848154811061083757610836614a8f565b5b9060005260206000200160009054906101000a900473ffffffffffffffffffffffffffffffffffffffff1673ffffffffffffffffffffffffffffffffffffffff1673ffffffffffffffffffffffffffffffffffffffff168152602001908152602001600020805480602002602001604051908101604052809291908181526020016000905b82821015610da357838290600052602060002090600a020160405180610140016040529081600082015481526020016001820180546108fa90614bbb565b80601f016020809104026020016040519081016040528092919081815260200182805461092690614bbb565b80156109735780601f1061094857610100808354040283529160200191610973565b820191906000526020600020905b81548152906001019060200180831161095657829003601f168201915b505050505081526020016002820160009054906101000a900473ffffffffffffffffffffffffffffffffffffffff1673ffffffffffffffffffffffffffffffffffffffff1673ffffffffffffffffffffffffffffffffffffffff1681526020016003820160009054906101000a900473ffffffffffffffffffffffffffffffffffffffff1673ffffffffffffffffffffffffffffffffffffffff1673ffffffffffffffffffffffffffffffffffffffff168152602001600482018054610a3890614bbb565b80601f0160208091040260200160405190810160405280929190818152602001828054610a6490614bbb565b8015610ab15780601f10610a8657610100808354040283529160200191610ab1565b820191906000526020600020905b815481529060010190602001808311610a9457829003601f168201915b50505050508152602001600582018054610aca90614bbb565b80601f0160208091040260200160405190810160405280929190818152602001828054610af690614bbb565b8015610b435780601f10610b1857610100808354040283529160200191610b43565b820191906000526020600020905b815481529060010190602001808311610b2657829003601f168201915b50505050508152602001600682018054610b5c90614bbb565b80601f0160208091040260200160405190810160405280929190818152602001828054610b8890614bbb565b8015610bd55780601f10610baa57610100808354040283529160200191610bd5565b820191906000526020600020905b815481529060010190602001808311610bb857829003601f168201915b50505050508152602001600782018054610bee90614bbb565b80601f0160208091040260200160405190810160405280929190818152602001828054610c1a90614bbb565b8015610c675780601f10610c3c57610100808354040283529160200191610c67565b820191906000526020600020905b815481529060010190602001808311610c4a57829003601f168201915b50505050508152602001600882018054610c8090614bbb565b80601f0160208091040260200160405190810160405280929190818152602001828054610cac90614bbb565b8015610cf95780601f10610cce57610100808354040283529160200191610cf9565b820191906000526020600020905b815481529060010190602001808311610cdc57829003601f168201915b50505050508152602001600982018054610d1290614bbb565b80601f0160208091040260200160405190810160405280929190818152602001828054610d3e90614bbb565b8015610d8b5780601f10610d6057610100808354040283529160200191610d8b565b820191906000526020600020905b815481529060010190602001808311610d6e57829003601f168201915b505050505081525050815260200190600101906108bc565b50505050905060005b8151811015610e0f57818181518110610dc857610dc7614a8f565b5b6020026020010151858581518110610de357610de2614a8f565b5b60200260200101819052508380610df990614b43565b9450508080610e0790614b43565b915050610dac565b50508080610e1c90614b43565b915050610810565b5081935050505090565b6000806000838152602001908152602001600020600101549050919050565b6000600960008473ffffffffffffffffffffffffffffffffffffffff1673ffffffffffffffffffffffffffffffffffffffff16815260200190815260200160002060008373ffffffffffffffffffffffffffffffffffffffff1673ffffffffffffffffffffffffffffffffffffffff16815260200190815260200160002060009054906101000a900460ff16905092915050565b610eea82610e2e565b610ef38161340d565b610efd8383613421565b505050565b610f0a613501565b73ffffffffffffffffffffffffffffffffffffffff168173ffffffffffffffffffffffffffffffffffffffff1614610f77576040517f08c379a0000000000000000000000000000000000000000000000000000000008152600401610f6e90614c5f565b60405180910390fd5b610f818282613509565b5050565b610f8f60036135ea565b6000610f9b6003613600565b905060006040518061014001604052808381526020018c81526020018b73ffffffffffffffffffffffffffffffffffffffff1681526020018a73ffffffffffffffffffffffffffffffffffffffff168152602001898152602001888152602001878152602001868152602001858152602001848152509050600660008b73ffffffffffffffffffffffffffffffffffffffff1673ffffffffffffffffffffffffffffffffffffffff1681526020019081526020016000208190806001815401808255809150506001900390600052602060002090600a02016000909190919091506000820151816000015560208201518160010190805190602001906110a2929190613989565b5060408201518160020160006101000a81548173ffffffffffffffffffffffffffffffffffffffff021916908373ffffffffffffffffffffffffffffffffffffffff16021790555060608201518160030160006101000a81548173ffffffffffffffffffffffffffffffffffffffff021916908373ffffffffffffffffffffffffffffffffffffffff160217905550608082015181600401908051906020019061114d929190613989565b5060a082015181600501908051906020019061116a929190613989565b5060c0820151816006019080519060200190611187929190613989565b5060e08201518160070190805190602001906111a4929190613989565b506101008201518160080190805190602001906111c2929190613989565b506101208201518160090190805190602001906111e0929190613989565b5050506001600660008c73ffffffffffffffffffffffffffffffffffffffff1673ffffffffffffffffffffffffffffffffffffffff16815260200190815260200160002080549050141561129257600c8a9080600181540180825580915050600190039060005260206000200160009091909190916101000a81548173ffffffffffffffffffffffffffffffffffffffff021916908373ffffffffffffffffffffffffffffffffffffffff1602179055505b6112bc7f72606200fac42b7dc86b75901d61ecfab2a4a1a6eded478b97a428094891abed8b61360e565b8973ffffffffffffffffffffffffffffffffffffffff167fc85b128388b9c331a2a5485dce4cd0f3db9f7c279d327ce95d6d39d6c94644c78c6040516113029190614c7f565b60405180910390a25050505050505050505050565b60606000600b8054905067ffffffffffffffff81111561133a57611339613f57565b5b60405190808252806020026020018201604052801561137357816020015b611360613a0f565b8152602001906001900390816113585790505b50905060005b600b805490508110156115c35760056000600b838154811061139e5761139d614a8f565b5b9060005260206000200160009054906101000a900473ffffffffffffffffffffffffffffffffffffffff1673ffffffffffffffffffffffffffffffffffffffff1673ffffffffffffffffffffffffffffffffffffffff1681526020019081526020016000206040518060800160405290816000820154815260200160018201805461142890614bbb565b80601f016020809104026020016040519081016040528092919081815260200182805461145490614bbb565b80156114a15780601f10611476576101008083540402835291602001916114a1565b820191906000526020600020905b81548152906001019060200180831161148457829003601f168201915b505050505081526020016002820180546114ba90614bbb565b80601f01602080910402602001604051908101604052809291908181526020018280546114e690614bbb565b80156115335780601f1061150857610100808354040283529160200191611533565b820191906000526020600020905b81548152906001019060200180831161151657829003601f168201915b505050505081526020016003820160009054906101000a900473ffffffffffffffffffffffffffffffffffffffff1673ffffffffffffffffffffffffffffffffffffffff1673ffffffffffffffffffffffffffffffffffffffff16815250508282815181106115a5576115a4614a8f565b5b602002602001018190525080806115bb90614b43565b915050611379565b508091505090565b60607f72606200fac42b7dc86b75901d61ecfab2a4a1a6eded478b97a428094891abed6115f78161340d565b8273ffffffffffffffffffffffffffffffffffffffff163373ffffffffffffffffffffffffffffffffffffffff1614611665576040517f08c379a000000000000000000000000000000000000000000000000000000000815260040161165c90614ced565b60405180910390fd5b6000600760008573ffffffffffffffffffffffffffffffffffffffff1673ffffffffffffffffffffffffffffffffffffffff16815260200190815260200160002080549050116116ea576040517f08c379a00000000000000000000000000000000000000000000000000000000081526004016116e190614d59565b60405180910390fd5b600760008473ffffffffffffffffffffffffffffffffffffffff1673ffffffffffffffffffffffffffffffffffffffff168152602001908152602001600020805480602002602001604051908101604052809291908181526020016000905b8282101561195557838290600052602060002090600502016040518060a0016040529081600082015481526020016001820160009054906101000a900473ffffffffffffffffffffffffffffffffffffffff1673ffffffffffffffffffffffffffffffffffffffff1673ffffffffffffffffffffffffffffffffffffffff1681526020016002820160009054906101000a900473ffffffffffffffffffffffffffffffffffffffff1673ffffffffffffffffffffffffffffffffffffffff1673ffffffffffffffffffffffffffffffffffffffff16815260200160038201805461183290614bbb565b80601f016020809104026020016040519081016040528092919081815260200182805461185e90614bbb565b80156118ab5780601f10611880576101008083540402835291602001916118ab565b820191906000526020600020905b81548152906001019060200180831161188e57829003601f168201915b505050505081526020016004820180546118c490614bbb565b80601f01602080910402602001604051908101604052809291908181526020018280546118f090614bbb565b801561193d5780601f106119125761010080835404028352916020019161193d565b820191906000526020600020905b81548152906001019060200180831161192057829003601f168201915b50505050508152505081526020019060010190611749565b50505050915050919050565b7fa49807205ce4d355092ef5a8a18f56e8913cf4a201fbe287825b095693c2177581565b6060600e805480602002602001604051908101604052809291908181526020016000905b82821015611b3457838290600052602060002090600302016040518060800160405290816000820160009054906101000a900473ffffffffffffffffffffffffffffffffffffffff1673ffffffffffffffffffffffffffffffffffffffff1673ffffffffffffffffffffffffffffffffffffffff1681526020016001820160009054906101000a900473ffffffffffffffffffffffffffffffffffffffff1673ffffffffffffffffffffffffffffffffffffffff1673ffffffffffffffffffffffffffffffffffffffff1681526020016001820160149054906101000a900460ff16151515158152602001600282018054611aa390614bbb565b80601f0160208091040260200160405190810160405280929190818152602001828054611acf90614bbb565b8015611b1c5780601f10611af157610100808354040283529160200191611b1c565b820191906000526020600020905b815481529060010190602001808311611aff57829003601f168201915b505050505081525050815260200190600101906119a9565b50505050905090565b600080600084815260200190815260200160002060000160008373ffffffffffffffffffffffffffffffffffffffff1673ffffffffffffffffffffffffffffffffffffffff16815260200190815260200160002060009054906101000a900460ff16905092915050565b60086020528160005260406000206020528060005260406000206000915091509054906101000a900460ff1681565b60066020528160005260406000208181548110611bf257600080fd5b90600052602060002090600a020160009150915050806000015490806001018054611c1c90614bbb565b80601f0160208091040260200160405190810160405280929190818152602001828054611c4890614bbb565b8015611c955780601f10611c6a57610100808354040283529160200191611c95565b820191906000526020600020905b815481529060010190602001808311611c7857829003601f168201915b5050505050908060020160009054906101000a900473ffffffffffffffffffffffffffffffffffffffff16908060030160009054906101000a900473ffffffffffffffffffffffffffffffffffffffff1690806004018054611cf690614bbb565b80601f0160208091040260200160405190810160405280929190818152602001828054611d2290614bbb565b8015611d6f5780601f10611d4457610100808354040283529160200191611d6f565b820191906000526020600020905b815481529060010190602001808311611d5257829003601f168201915b505050505090806005018054611d8490614bbb565b80601f0160208091040260200160405190810160405280929190818152602001828054611db090614bbb565b8015611dfd5780601f10611dd257610100808354040283529160200191611dfd565b820191906000526020600020905b815481529060010190602001808311611de057829003601f168201915b505050505090806006018054611e1290614bbb565b80601f0160208091040260200160405190810160405280929190818152602001828054611e3e90614bbb565b8015611e8b5780601f10611e6057610100808354040283529160200191611e8b565b820191906000526020600020905b815481529060010190602001808311611e6e57829003601f168201915b505050505090806007018054611ea090614bbb565b80601f0160208091040260200160405190810160405280929190818152602001828054611ecc90614bbb565b8015611f195780601f10611eee57610100808354040283529160200191611f19565b820191906000526020600020905b815481529060010190602001808311611efc57829003601f168201915b505050505090806008018054611f2e90614bbb565b80601f0160208091040260200160405190810160405280929190818152602001828054611f5a90614bbb565b8015611fa75780601f10611f7c57610100808354040283529160200191611fa7565b820191906000526020600020905b815481529060010190602001808311611f8a57829003601f168201915b505050505090806009018054611fbc90614bbb565b80601f0160208091040260200160405190810160405280929190818152602001828054611fe890614bbb565b80156120355780601f1061200a57610100808354040283529160200191612035565b820191906000526020600020905b81548152906001019060200180831161201857829003601f168201915b505050505090508a565b6000801b81565b7f72606200fac42b7dc86b75901d61ecfab2a4a1a6eded478b97a428094891abed6120708161340d565b61209a7fc8f5b4140cca307cd927e59cbeea8291bffeee228fc677f0fa059aef7b4dd8d583611b3d565b6120d9576040517f08c379a00000000000000000000000000000000000000000000000000000000081526004016120d090614dc5565b60405180910390fd5b600960003373ffffffffffffffffffffffffffffffffffffffff1673ffffffffffffffffffffffffffffffffffffffff16815260200190815260200160002060008373ffffffffffffffffffffffffffffffffffffffff1673ffffffffffffffffffffffffffffffffffffffff16815260200190815260200160002060009054906101000a900460ff16156121a3576040517f08c379a000000000000000000000000000000000000000000000000000000000815260040161219a90614e31565b60405180910390fd5b6001600960003373ffffffffffffffffffffffffffffffffffffffff1673ffffffffffffffffffffffffffffffffffffffff16815260200190815260200160002060008473ffffffffffffffffffffffffffffffffffffffff1673ffffffffffffffffffffffffffffffffffffffff16815260200190815260200160002060006101000a81548160ff0219169083151502179055508173ffffffffffffffffffffffffffffffffffffffff163373ffffffffffffffffffffffffffffffffffffffff167f8105c574d2239a3a4f73f5efc5bc253cffb275647df535adfa2c240739cc922060405160405180910390a35050565b7f72606200fac42b7dc86b75901d61ecfab2a4a1a6eded478b97a428094891abed81565b600c81815481106122ca57600080fd5b906000526020600020016000915054906101000a900473ffffffffffffffffffffffffffffffffffffffff1681565b60607fc8f5b4140cca307cd927e59cbeea8291bffeee228fc677f0fa059aef7b4dd8d56123258161340d565b600960008473ffffffffffffffffffffffffffffffffffffffff1673ffffffffffffffffffffffffffffffffffffffff16815260200190815260200160002060003373ffffffffffffffffffffffffffffffffffffffff1673ffffffffffffffffffffffffffffffffffffffff16815260200190815260200160002060009054906101000a900460ff166123ee576040517f08c379a00000000000000000000000000000000000000000000000000000000081526004016123e590614e9d565b60405180910390fd5b6000600760008573ffffffffffffffffffffffffffffffffffffffff1673ffffffffffffffffffffffffffffffffffffffff1681526020019081526020016000208054905011612473576040517f08c379a000000000000000000000000000000000000000000000000000000000815260040161246a90614d59565b60405180910390fd5b600760008473ffffffffffffffffffffffffffffffffffffffff1673ffffffffffffffffffffffffffffffffffffffff168152602001908152602001600020805480602002602001604051908101604052809291908181526020016000905b828210156126de57838290600052602060002090600502016040518060a0016040529081600082015481526020016001820160009054906101000a900473ffffffffffffffffffffffffffffffffffffffff1673ffffffffffffffffffffffffffffffffffffffff1673ffffffffffffffffffffffffffffffffffffffff1681526020016002820160009054906101000a900473ffffffffffffffffffffffffffffffffffffffff1673ffffffffffffffffffffffffffffffffffffffff1673ffffffffffffffffffffffffffffffffffffffff1681526020016003820180546125bb90614bbb565b80601f01602080910402602001604051908101604052809291908181526020018280546125e790614bbb565b80156126345780601f1061260957610100808354040283529160200191612634565b820191906000526020600020905b81548152906001019060200180831161261757829003601f168201915b5050505050815260200160048201805461264d90614bbb565b80601f016020809104026020016040519081016040528092919081815260200182805461267990614bbb565b80156126c65780601f1061269b576101008083540402835291602001916126c6565b820191906000526020600020905b8154815290600101906020018083116126a957829003601f168201915b505050505081525050815260200190600101906124d2565b50505050915050919050565b7fc8f5b4140cca307cd927e59cbeea8291bffeee228fc677f0fa059aef7b4dd8d56127148161340d565b600115158315151461275b576040517f08c379a000000000000000000000000000000000000000000000000000000000815260040161275290614f09565b60405180910390fd5b600e60405180608001604052808673ffffffffffffffffffffffffffffffffffffffff1681526020018773ffffffffffffffffffffffffffffffffffffffff168152602001851515815260200184815250908060018154018082558091505060019003906000526020600020906003020160009091909190915060008201518160000160006101000a81548173ffffffffffffffffffffffffffffffffffffffff021916908373ffffffffffffffffffffffffffffffffffffffff16021790555060208201518160010160006101000a81548173ffffffffffffffffffffffffffffffffffffffff021916908373ffffffffffffffffffffffffffffffffffffffff16021790555060408201518160010160146101000a81548160ff021916908315150217905550606082015181600201908051906020019061289f929190613989565b5050505050505050565b7f72606200fac42b7dc86b75901d61ecfab2a4a1a6eded478b97a428094891abed6128d38161340d565b6128fd7fc8f5b4140cca307cd927e59cbeea8291bffeee228fc677f0fa059aef7b4dd8d583611b3d565b61293c576040517f08c379a000000000000000000000000000000000000000000000000000000000815260040161293390614dc5565b60405180910390fd5b600960003373ffffffffffffffffffffffffffffffffffffffff1673ffffffffffffffffffffffffffffffffffffffff16815260200190815260200160002060008373ffffffffffffffffffffffffffffffffffffffff1673ffffffffffffffffffffffffffffffffffffffff16815260200190815260200160002060009054906101000a900460ff16612a05576040517f08c379a00000000000000000000000000000000000000000000000000000000081526004016129fc90614f9b565b60405180910390fd5b6000600960003373ffffffffffffffffffffffffffffffffffffffff1673ffffffffffffffffffffffffffffffffffffffff16815260200190815260200160002060008473ffffffffffffffffffffffffffffffffffffffff1673ffffffffffffffffffffffffffffffffffffffff16815260200190815260200160002060006101000a81548160ff0219169083151502179055508173ffffffffffffffffffffffffffffffffffffffff163373ffffffffffffffffffffffffffffffffffffffff167febecee2d3f2ea272f73dd9d9ccc0bacd11280d61240332cbcd8a68173ae5cc2c60405160405180910390a35050565b612b0182610e2e565b612b0a8161340d565b612b148383613509565b505050565b600e8181548110612b2957600080fd5b90600052602060002090600302016000915090508060000160009054906101000a900473ffffffffffffffffffffffffffffffffffffffff16908060010160009054906101000a900473ffffffffffffffffffffffffffffffffffffffff16908060010160149054906101000a900460ff1690806002018054612bab90614bbb565b80601f0160208091040260200160405190810160405280929190818152602001828054612bd790614bbb565b8015612c245780601f10612bf957610100808354040283529160200191612c24565b820191906000526020600020905b815481529060010190602001808311612c0757829003601f168201915b5050505050905084565b600b8181548110612c3e57600080fd5b906000526020600020016000915054906101000a900473ffffffffffffffffffffffffffffffffffffffff1681565b600d8181548110612c7d57600080fd5b906000526020600020016000915054906101000a900473ffffffffffffffffffffffffffffffffffffffff1681565b60096020528160005260406000206020528060005260406000206000915091509054906101000a900460ff1681565b6000600560008473ffffffffffffffffffffffffffffffffffffffff1673ffffffffffffffffffffffffffffffffffffffff1681526020019081526020016000206000015414612d60576040517f08c379a0000000000000000000000000000000000000000000000000000000008152600401612d5790615007565b60405180910390fd5b612d6a60026135ea565b6000612d766002613600565b905060405180608001604052808281526020018581526020018381526020018473ffffffffffffffffffffffffffffffffffffffff16815250600560008573ffffffffffffffffffffffffffffffffffffffff1673ffffffffffffffffffffffffffffffffffffffff168152602001908152602001600020600082015181600001556020820151816001019080519060200190612e14929190613989565b506040820151816002019080519060200190612e31929190613989565b5060608201518160030160006101000a81548173ffffffffffffffffffffffffffffffffffffffff021916908373ffffffffffffffffffffffffffffffffffffffff160217905550905050600b839080600181540180825580915050600190039060005260206000200160009091909190916101000a81548173ffffffffffffffffffffffffffffffffffffffff021916908373ffffffffffffffffffffffffffffffffffffffff160217905550612f097fc8f5b4140cca307cd927e59cbeea8291bffeee228fc677f0fa059aef7b4dd8d58461360e565b8273ffffffffffffffffffffffffffffffffffffffff167f72cefccb74b7edacb21023a72b39a2cecb1123ba70d1eea03d3509d046b941c285604051612f4f9190614c7f565b60405180910390a250505050565b6005602052806000526040600020600091509050806000015490806001018054612f8690614bbb565b80601f0160208091040260200160405190810160405280929190818152602001828054612fb290614bbb565b8015612fff5780601f10612fd457610100808354040283529160200191612fff565b820191906000526020600020905b815481529060010190602001808311612fe257829003601f168201915b50505050509080600201805461301490614bbb565b80601f016020809104026020016040519081016040528092919081815260200182805461304090614bbb565b801561308d5780601f106130625761010080835404028352916020019161308d565b820191906000526020600020905b81548152906001019060200180831161307057829003601f168201915b5050505050908060030160009054906101000a900473ffffffffffffffffffffffffffffffffffffffff16905084565b7fc8f5b4140cca307cd927e59cbeea8291bffeee228fc677f0fa059aef7b4dd8d581565b7fc8f5b4140cca307cd927e59cbeea8291bffeee228fc677f0fa059aef7b4dd8d561310b8161340d565b61311560046135ea565b60006131216004613600565b90506000339050600760008773ffffffffffffffffffffffffffffffffffffffff1673ffffffffffffffffffffffffffffffffffffffff1681526020019081526020016000206040518060a001604052808481526020018873ffffffffffffffffffffffffffffffffffffffff1681526020018373ffffffffffffffffffffffffffffffffffffffff1681526020018781526020018681525090806001815401808255809150506001900390600052602060002090600502016000909190919091506000820151816000015560208201518160010160006101000a81548173ffffffffffffffffffffffffffffffffffffffff021916908373ffffffffffffffffffffffffffffffffffffffff16021790555060408201518160020160006101000a81548173ffffffffffffffffffffffffffffffffffffffff021916908373ffffffffffffffffffffffffffffffffffffffff1602179055506060820151816003019080519060200190613297929190613989565b5060808201518160040190805190602001906132b4929190613989565b505050600d869080600181540180825580915050600190039060005260206000200160009091909190916101000a81548173ffffffffffffffffffffffffffffffffffffffff021916908373ffffffffffffffffffffffffffffffffffffffff1602179055508073ffffffffffffffffffffffffffffffffffffffff168673ffffffffffffffffffffffffffffffffffffffff16837f271f6d1a6ced511c825954686a627824819d9d0414ad24ab29f5a016a33f4ec760405160405180910390a4505050505050565b600160009054906101000a900473ffffffffffffffffffffffffffffffffffffffff1681565b60007f01ffc9a7000000000000000000000000000000000000000000000000000000007bffffffffffffffffffffffffffffffffffffffffffffffffffffffff1916827bffffffffffffffffffffffffffffffffffffffffffffffffffffffff1916149050919050565b61341e81613419613501565b61361c565b50565b61342b8282611b3d565b6134fd57600160008084815260200190815260200160002060000160008373ffffffffffffffffffffffffffffffffffffffff1673ffffffffffffffffffffffffffffffffffffffff16815260200190815260200160002060006101000a81548160ff0219169083151502179055506134a2613501565b73ffffffffffffffffffffffffffffffffffffffff168173ffffffffffffffffffffffffffffffffffffffff16837f2f8788117e7eff1d82e926ec794901d17c78024a50270940304540a733656f0d60405160405180910390a45b5050565b600033905090565b6135138282611b3d565b156135e657600080600084815260200190815260200160002060000160008373ffffffffffffffffffffffffffffffffffffffff1673ffffffffffffffffffffffffffffffffffffffff16815260200190815260200160002060006101000a81548160ff02191690831515021790555061358b613501565b73ffffffffffffffffffffffffffffffffffffffff168173ffffffffffffffffffffffffffffffffffffffff16837ff6391f5c32d9c69d2a47ea670b442974b53935d1edc7fd64eb21e047a839171b60405160405180910390a45b5050565b6001816000016000828254019250508190555050565b600081600001549050919050565b6136188282613421565b5050565b6136268282611b3d565b61369d57613633816136a1565b6136418360001c60206136ce565b6040516020016136529291906150fb565b6040516020818303038152906040526040517f08c379a00000000000000000000000000000000000000000000000000000000081526004016136949190614c7f565b60405180910390fd5b5050565b60606136c78273ffffffffffffffffffffffffffffffffffffffff16601460ff166136ce565b9050919050565b6060600060028360026136e19190615135565b6136eb9190614aed565b67ffffffffffffffff81111561370457613703613f57565b5b6040519080825280601f01601f1916602001820160405280156137365781602001600182028036833780820191505090505b5090507f30000000000000000000000000000000000000000000000000000000000000008160008151811061376e5761376d614a8f565b5b60200101907effffffffffffffffffffffffffffffffffffffffffffffffffffffffffffff1916908160001a9053507f7800000000000000000000000000000000000000000000000000000000000000816001815181106137d2576137d1614a8f565b5b60200101907effffffffffffffffffffffffffffffffffffffffffffffffffffffffffffff1916908160001a905350600060018460026138129190615135565b61381c9190614aed565b90505b60018111156138bc577f3031323334353637383961626364656600000000000000000000000000000000600f86166010811061385e5761385d614a8f565b5b1a60f81b82828151811061387557613874614a8f565b5b60200101907effffffffffffffffffffffffffffffffffffffffffffffffffffffffffffff1916908160001a905350600485901c9450806138b59061518f565b905061381f565b5060008414613900576040517f08c379a00000000000000000000000000000000000000000000000000000000081526004016138f790615205565b60405180910390fd5b8091505092915050565b6040518061014001604052806000815260200160608152602001600073ffffffffffffffffffffffffffffffffffffffff168152602001600073ffffffffffffffffffffffffffffffffffffffff1681526020016060815260200160608152602001606081526020016060815260200160608152602001606081525090565b82805461399590614bbb565b90600052602060002090601f0160209004810192826139b757600085556139fe565b82601f106139d057805160ff19168380011785556139fe565b828001600101855582156139fe579182015b828111156139fd5782518255916020019190600101906139e2565b5b509050613a0b9190613a4d565b5090565b6040518060800160405280600081526020016060815260200160608152602001600073ffffffffffffffffffffffffffffffffffffffff1681525090565b5b80821115613a66576000816000905550600101613a4e565b5090565b6000604051905090565b600080fd5b600080fd5b60007fffffffff0000000000000000000000000000000000000000000000000000000082169050919050565b613ab381613a7e565b8114613abe57600080fd5b50565b600081359050613ad081613aaa565b92915050565b600060208284031215613aec57613aeb613a74565b5b6000613afa84828501613ac1565b91505092915050565b60008115159050919050565b613b1881613b03565b82525050565b6000602082019050613b336000830184613b0f565b92915050565b600081519050919050565b600082825260208201905092915050565b6000819050602082019050919050565b6000819050919050565b613b7881613b65565b82525050565b600081519050919050565b600082825260208201905092915050565b60005b83811015613bb8578082015181840152602081019050613b9d565b83811115613bc7576000848401525b50505050565b6000601f19601f8301169050919050565b6000613be982613b7e565b613bf38185613b89565b9350613c03818560208601613b9a565b613c0c81613bcd565b840191505092915050565b600073ffffffffffffffffffffffffffffffffffffffff82169050919050565b6000613c4282613c17565b9050919050565b613c5281613c37565b82525050565b600061014083016000830151613c716000860182613b6f565b5060208301518482036020860152613c898282613bde565b9150506040830151613c9e6040860182613c49565b506060830151613cb16060860182613c49565b5060808301518482036080860152613cc98282613bde565b91505060a083015184820360a0860152613ce38282613bde565b91505060c083015184820360c0860152613cfd8282613bde565b91505060e083015184820360e0860152613d178282613bde565b915050610100830151848203610100860152613d338282613bde565b915050610120830151848203610120860152613d4f8282613bde565b9150508091505092915050565b6000613d688383613c58565b905092915050565b6000602082019050919050565b6000613d8882613b39565b613d928185613b44565b935083602082028501613da485613b55565b8060005b85811015613de05784840389528151613dc18582613d5c565b9450613dcc83613d70565b925060208a01995050600181019050613da8565b50829750879550505050505092915050565b60006020820190508181036000830152613e0c8184613d7d565b905092915050565b6000819050919050565b613e2781613e14565b8114613e3257600080fd5b50565b600081359050613e4481613e1e565b92915050565b600060208284031215613e6057613e5f613a74565b5b6000613e6e84828501613e35565b91505092915050565b613e8081613e14565b82525050565b6000602082019050613e9b6000830184613e77565b92915050565b613eaa81613c37565b8114613eb557600080fd5b50565b600081359050613ec781613ea1565b92915050565b60008060408385031215613ee457613ee3613a74565b5b6000613ef285828601613eb8565b9250506020613f0385828601613eb8565b9150509250929050565b60008060408385031215613f2457613f23613a74565b5b6000613f3285828601613e35565b9250506020613f4385828601613eb8565b9150509250929050565b600080fd5b600080fd5b7f4e487b7100000000000000000000000000000000000000000000000000000000600052604160045260246000fd5b613f8f82613bcd565b810181811067ffffffffffffffff82111715613fae57613fad613f57565b5b80604052505050565b6000613fc1613a6a565b9050613fcd8282613f86565b919050565b600067ffffffffffffffff821115613fed57613fec613f57565b5b613ff682613bcd565b9050602081019050919050565b82818337600083830152505050565b600061402561402084613fd2565b613fb7565b90508281526020810184848401111561404157614040613f52565b5b61404c848285614003565b509392505050565b600082601f83011261406957614068613f4d565b5b8135614079848260208601614012565b91505092915050565b60008060008060008060008060006101208a8c0312156140a5576140a4613a74565b5b60008a013567ffffffffffffffff8111156140c3576140c2613a79565b5b6140cf8c828d01614054565b99505060206140e08c828d01613eb8565b98505060406140f18c828d01613eb8565b97505060608a013567ffffffffffffffff81111561411257614111613a79565b5b61411e8c828d01614054565b96505060808a013567ffffffffffffffff81111561413f5761413e613a79565b5b61414b8c828d01614054565b95505060a08a013567ffffffffffffffff81111561416c5761416b613a79565b5b6141788c828d01614054565b94505060c08a013567ffffffffffffffff81111561419957614198613a79565b5b6141a58c828d01614054565b93505060e08a013567ffffffffffffffff8111156141c6576141c5613a79565b5b6141d28c828d01614054565b9250506101008a013567ffffffffffffffff8111156141f4576141f3613a79565b5b6142008c828d01614054565b9150509295985092959850929598565b600081519050919050565b600082825260208201905092915050565b6000819050602082019050919050565b60006080830160008301516142546000860182613b6f565b506020830151848203602086015261426c8282613bde565b915050604083015184820360408601526142868282613bde565b915050606083015161429b6060860182613c49565b508091505092915050565b60006142b2838361423c565b905092915050565b6000602082019050919050565b60006142d282614210565b6142dc818561421b565b9350836020820285016142ee8561422c565b8060005b8581101561432a578484038952815161430b85826142a6565b9450614316836142ba565b925060208a019950506001810190506142f2565b50829750879550505050505092915050565b6000602082019050818103600083015261435681846142c7565b905092915050565b60006020828403121561437457614373613a74565b5b600061438284828501613eb8565b91505092915050565b600081519050919050565b600082825260208201905092915050565b6000819050602082019050919050565b600060a0830160008301516143cf6000860182613b6f565b5060208301516143e26020860182613c49565b5060408301516143f56040860182613c49565b506060830151848203606086015261440d8282613bde565b915050608083015184820360808601526144278282613bde565b9150508091505092915050565b600061444083836143b7565b905092915050565b6000602082019050919050565b60006144608261438b565b61446a8185614396565b93508360208202850161447c856143a7565b8060005b858110156144b857848403895281516144998582614434565b94506144a483614448565b925060208a01995050600181019050614480565b50829750879550505050505092915050565b600060208201905081810360008301526144e48184614455565b905092915050565b600081519050919050565b600082825260208201905092915050565b6000819050602082019050919050565b61452181613b03565b82525050565b600060808301600083015161453f6000860182613c49565b5060208301516145526020860182613c49565b5060408301516145656040860182614518565b506060830151848203606086015261457d8282613bde565b9150508091505092915050565b60006145968383614527565b905092915050565b6000602082019050919050565b60006145b6826144ec565b6145c081856144f7565b9350836020820285016145d285614508565b8060005b8581101561460e57848403895281516145ef858261458a565b94506145fa8361459e565b925060208a019950506001810190506145d6565b50829750879550505050505092915050565b6000602082019050818103600083015261463a81846145ab565b905092915050565b61464b81613b65565b811461465657600080fd5b50565b60008135905061466881614642565b92915050565b6000806040838503121561468557614684613a74565b5b600061469385828601613eb8565b92505060206146a485828601614659565b9150509250929050565b6146b781613b65565b82525050565b600082825260208201905092915050565b60006146d982613b7e565b6146e381856146bd565b93506146f3818560208601613b9a565b6146fc81613bcd565b840191505092915050565b61471081613c37565b82525050565b60006101408201905061472c600083018d6146ae565b818103602083015261473e818c6146ce565b905061474d604083018b614707565b61475a606083018a614707565b818103608083015261476c81896146ce565b905081810360a083015261478081886146ce565b905081810360c083015261479481876146ce565b905081810360e08301526147a881866146ce565b90508181036101008301526147bd81856146ce565b90508181036101208301526147d281846146ce565b90509b9a5050505050505050505050565b6000602082840312156147f9576147f8613a74565b5b600061480784828501614659565b91505092915050565b60006020820190506148256000830184614707565b92915050565b61483481613b03565b811461483f57600080fd5b50565b6000813590506148518161482b565b92915050565b6000806000806080858703121561487157614870613a74565b5b600061487f87828801613eb8565b945050602061489087828801613eb8565b93505060406148a187828801614842565b925050606085013567ffffffffffffffff8111156148c2576148c1613a79565b5b6148ce87828801614054565b91505092959194509250565b60006080820190506148ef6000830187614707565b6148fc6020830186614707565b6149096040830185613b0f565b818103606083015261491b81846146ce565b905095945050505050565b60008060006060848603121561493f5761493e613a74565b5b600084013567ffffffffffffffff81111561495d5761495c613a79565b5b61496986828701614054565b935050602061497a86828701613eb8565b925050604084013567ffffffffffffffff81111561499b5761499a613a79565b5b6149a786828701614054565b9150509250925092565b60006080820190506149c660008301876146ae565b81810360208301526149d881866146ce565b905081810360408301526149ec81856146ce565b90506149fb6060830184614707565b95945050505050565b600080600060608486031215614a1d57614a1c613a74565b5b6000614a2b86828701613eb8565b935050602084013567ffffffffffffffff811115614a4c57614a4b613a79565b5b614a5886828701614054565b925050604084013567ffffffffffffffff811115614a7957614a78613a79565b5b614a8586828701614054565b9150509250925092565b7f4e487b7100000000000000000000000000000000000000000000000000000000600052603260045260246000fd5b7f4e487b7100000000000000000000000000000000000000000000000000000000600052601160045260246000fd5b6000614af882613b65565b9150614b0383613b65565b9250827fffffffffffffffffffffffffffffffffffffffffffffffffffffffffffffffff03821115614b3857614b37614abe565b5b828201905092915050565b6000614b4e82613b65565b91507fffffffffffffffffffffffffffffffffffffffffffffffffffffffffffffffff821415614b8157614b80614abe565b5b600182019050919050565b7f4e487b7100000000000000000000000000000000000000000000000000000000600052602260045260246000fd5b60006002820490506001821680614bd357607f821691505b60208210811415614be757614be6614b8c565b5b50919050565b7f416363657373436f6e74726f6c3a2063616e206f6e6c792072656e6f756e636560008201527f20726f6c657320666f722073656c660000000000000000000000000000000000602082015250565b6000614c49602f836146bd565b9150614c5482614bed565b604082019050919050565b60006020820190508181036000830152614c7881614c3c565b9050919050565b60006020820190508181036000830152614c9981846146ce565b905092915050565b7f43616e206f6e6c792076696577206f776e207265636f72647300000000000000600082015250565b6000614cd76019836146bd565b9150614ce282614ca1565b602082019050919050565b60006020820190508181036000830152614d0681614cca565b9050919050565b7f4e6f207265636f72647320666f756e6400000000000000000000000000000000600082015250565b6000614d436010836146bd565b9150614d4e82614d0d565b602082019050919050565b60006020820190508181036000830152614d7281614d36565b9050919050565b7f496e76616c696420686f73706974616c20616464726573730000000000000000600082015250565b6000614daf6018836146bd565b9150614dba82614d79565b602082019050919050565b60006020820190508181036000830152614dde81614da2565b9050919050565b7f436f6e73656e7420616c726561647920676976656e0000000000000000000000600082015250565b6000614e1b6015836146bd565b9150614e2682614de5565b602082019050919050565b60006020820190508181036000830152614e4a81614e0e565b9050919050565b7f4163636573732064656e69656400000000000000000000000000000000000000600082015250565b6000614e87600d836146bd565b9150614e9282614e51565b602082019050919050565b60006020820190508181036000830152614eb681614e7a565b9050919050565b7f436f6e73656e742076616c7565206d7573742062652074727565000000000000600082015250565b6000614ef3601a836146bd565b9150614efe82614ebd565b602082019050919050565b60006020820190508181036000830152614f2281614ee6565b9050919050565b7f4e6f20636f6e73656e7420676976656e20746f207468697320686f737069746160008201527f6c00000000000000000000000000000000000000000000000000000000000000602082015250565b6000614f856021836146bd565b9150614f9082614f29565b604082019050919050565b60006020820190508181036000830152614fb481614f78565b9050919050565b7f486f73706974616c20616c726561647920726567697374657265640000000000600082015250565b6000614ff1601b836146bd565b9150614ffc82614fbb565b602082019050919050565b6000602082019050818103600083015261502081614fe4565b9050919050565b600081905092915050565b7f416363657373436f6e74726f6c3a206163636f756e7420000000000000000000600082015250565b6000615068601783615027565b915061507382615032565b601782019050919050565b600061508982613b7e565b6150938185615027565b93506150a3818560208601613b9a565b80840191505092915050565b7f206973206d697373696e6720726f6c6520000000000000000000000000000000600082015250565b60006150e5601183615027565b91506150f0826150af565b601182019050919050565b60006151068261505b565b9150615112828561507e565b915061511d826150d8565b9150615129828461507e565b91508190509392505050565b600061514082613b65565b915061514b83613b65565b9250817fffffffffffffffffffffffffffffffffffffffffffffffffffffffffffffffff048311821515161561518457615183614abe565b5b828202905092915050565b600061519a82613b65565b915060008214156151ae576151ad614abe565b5b600182039050919050565b7f537472696e67733a20686578206c656e67746820696e73756666696369656e74600082015250565b60006151ef6020836146bd565b91506151fa826151b9565b602082019050919050565b6000602082019050818103600083015261521e816151e2565b905091905056fea26469706673582212207964be63c894d52e795904036c6030a659ef3d9f051b98b2fd425749f174aec364736f6c634300080c0033",
  "immutableReferences": {},
  "source": "// SPDX-License-Identifier: MIT\r\npragma solidity ^0.8.0;\r\n\r\nimport \"@openzeppelin/contracts/access/AccessControl.sol\";\r\nimport \"@openzeppelin/contracts/utils/Counters.sol\";\r\n\r\ncontract MedicalDataTransfer is AccessControl {\r\n    using Counters for Counters.Counter;\r\n\r\n    bytes32 public constant ADMIN_ROLE = keccak256(\"ADMIN_ROLE\");\r\n    bytes32 public constant HOSPITAL_ROLE = keccak256(\"HOSPITAL_ROLE\");\r\n    bytes32 public constant PATIENT_ROLE = keccak256(\"PATIENT_ROLE\");\r\n\r\n    address public Admin = 0xa500301371167FefBf7161B4b8Ae5dcAE6B7C11D;\r\n\r\n    Counters.Counter private _hospitalCounter;\r\n    Counters.Counter private _patientCounter;\r\n    Counters.Counter private _recordCounter;\r\n\r\n    mapping(address => Hospital) public hospitals;\r\n    mapping(address => Patient[]) public patients;\r\n    mapping(address => Record[]) private records;\r\n\r\n    mapping(address => mapping(address => bool)) public hospitalInterconnections;\r\n    mapping(address => mapping(address => bool)) public patientConsents;\r\n    mapping(address => address[]) private patientConsentHospitals;\r\n\r\n    address[] public hospitalAddresses;\r\n    address[] public patientAddresses;\r\n    address[] public recordses;\r\n\r\n    event HospitalRegistered(address indexed hospitalAddress, string name);\r\n    event PatientRegistered(address indexed patientAddress, string name);\r\n    event HospitalRemoved(address indexed addresskey);\r\n    event RecordStored(uint256 indexed recordId, address indexed patientAddress, address indexed hospitalAddress);\r\n    event ConsentGranted(address indexed patientAddress, address indexed hospitalAddress);\r\n    event ConsentRevoked(address indexed patientAddress, address indexed hospitalAddress);\r\n    event RecordRetrieved(address indexed patientAddress, uint256 recordCount);\r\n\r\n    struct Hospital {\r\n        uint256 id;\r\n        string name;\r\n        string location;\r\n        address hospitalAddress;\r\n    }\r\n\r\n    struct Patient {\r\n        uint256 id;\r\n        string name;\r\n        address patientAddress;\r\n        address hospitalAddress;\r\n        string dob;\r\n        string gender;\r\n        string bloodGroup;\r\n        string govId;\r\n        string phone;\r\n        string email;\r\n    }\r\n\r\n    struct Record {\r\n        uint256 id;\r\n        address patientAddress;\r\n        address hospitalAddress;\r\n        string encryptedData;\r\n        string encryptionKey;\r\n    }\r\n\r\n    struct Consent {\r\n        address hospitalAddress;\r\n        address patientAddress;\r\n        bool consentGiven;\r\n        string message;\r\n    }\r\n\r\n    Consent[] public consents;\r\n\r\n    constructor() {\r\n        _setupRole(ADMIN_ROLE, Admin);\r\n    }\r\n\r\n    //working\r\n    function registerHospital(string memory name, address addresskey, string memory location) public {\r\n        require(hospitals[addresskey].id == 0, \"Hospital already registered\");\r\n        _hospitalCounter.increment();\r\n        uint256 hospitalId = _hospitalCounter.current();\r\n        hospitals[addresskey] = Hospital(hospitalId, name, location, addresskey);\r\n        hospitalAddresses.push(addresskey);\r\n        _setupRole(HOSPITAL_ROLE, addresskey);\r\n        emit HospitalRegistered(addresskey, name);\r\n    }\r\n\r\n    //working\r\n    function registerPatient(string memory name, address addresskey, address hospitalAddress,string memory dob,\r\n    string memory gender,\r\n    string memory bloodGroup,\r\n    string memory govId,\r\n    string memory phone,\r\n    string memory email ) public {\r\n        _patientCounter.increment();\r\n        uint256 patientId = _patientCounter.current();\r\n        \r\n        Patient memory newPatient = Patient(\r\n            patientId,\r\n            name,\r\n            addresskey,\r\n            hospitalAddress,\r\n            dob,\r\n            gender,\r\n            bloodGroup,\r\n            govId,\r\n            phone,\r\n            email\r\n        );\r\n        \r\n        patients[addresskey].push(newPatient);\r\n        \r\n        if (patients[addresskey].length == 1) {\r\n            patientAddresses.push(addresskey);\r\n        }\r\n        \r\n        _setupRole(PATIENT_ROLE, addresskey);\r\n        emit PatientRegistered(addresskey, name);\r\n    }\r\n    \r\n\r\n    //working\r\n    function storeRecord(address patientAddress, string memory encryptedData, string memory encryptionKey) \r\n    public onlyRole(HOSPITAL_ROLE) \r\n    {\r\n        _recordCounter.increment();\r\n        uint256 recordId = _recordCounter.current();\r\n        address hospitalAddress = msg.sender;\r\n\r\n        // Store multiple records per patient\r\n        records[patientAddress].push(Record(recordId, patientAddress, hospitalAddress, encryptedData, encryptionKey));\r\n\r\n        recordses.push(patientAddress);\r\n        emit RecordStored(recordId, patientAddress, hospitalAddress);\r\n    }\r\n\r\n    //working\r\n    function getAllHospitals() public view returns (Hospital[] memory) {\r\n        Hospital[] memory allHospitals = new Hospital[](hospitalAddresses.length);\r\n        for (uint256 i = 0; i < hospitalAddresses.length; i++) {\r\n            allHospitals[i] = hospitals[hospitalAddresses[i]];\r\n        }\r\n        return allHospitals;\r\n    }\r\n\r\n    //working\r\n    function getAllPatients() public view returns (Patient[] memory) {\r\n        uint256 totalRegistrations = 0;\r\n        for (uint256 i = 0; i < patientAddresses.length; i++) {\r\n            totalRegistrations += patients[patientAddresses[i]].length;\r\n        }\r\n        Patient[] memory allPatients = new Patient[](totalRegistrations);\r\n        uint256 currentIndex = 0;\r\n    \r\n        for (uint256 i = 0; i < patientAddresses.length; i++) {\r\n            Patient[] memory patientRegistrations = patients[patientAddresses[i]];\r\n            for (uint256 j = 0; j < patientRegistrations.length; j++) {\r\n                allPatients[currentIndex] = patientRegistrations[j];\r\n                currentIndex++;\r\n            }\r\n        }\r\n        \r\n        return allPatients;\r\n    }\r\n\r\n    //working\r\n    function addConsent(address patientAddress, address hospitalAddress, bool consentGiven, string memory message) public onlyRole(HOSPITAL_ROLE) {\r\n        require(consentGiven == true, \"Consent value must be true\");\r\n        consents.push(Consent(hospitalAddress, patientAddress, consentGiven, message));\r\n    }\r\n\r\n    //working\r\n    function getConsents() public view returns (Consent[] memory) {\r\n        return consents;\r\n    }\r\n\r\n    //working\r\n     function grantConsent(address hospitalAddress) public onlyRole(PATIENT_ROLE) {\r\n        require(hasRole(HOSPITAL_ROLE, hospitalAddress), \"Invalid hospital address\");\r\n        require(!patientConsents[msg.sender][hospitalAddress], \"Consent already given\");\r\n        patientConsents[msg.sender][hospitalAddress] = true;\r\n        emit ConsentGranted(msg.sender, hospitalAddress);\r\n    }\r\n\r\n    //working\r\n    function revokeConsent(address hospitalAddress) public onlyRole(PATIENT_ROLE) {\r\n        require(hasRole(HOSPITAL_ROLE, hospitalAddress), \"Invalid hospital address\");\r\n        require(patientConsents[msg.sender][hospitalAddress], \"No consent given to this hospital\");\r\n        patientConsents[msg.sender][hospitalAddress] = false;\r\n        emit ConsentRevoked(msg.sender, hospitalAddress);\r\n    }\r\n\r\n    //working\r\n    function getPatientConsent(address patientAddress, address hospitalAddress) \r\n    public \r\n    view \r\n    returns (bool) \r\n    {\r\n        return patientConsents[patientAddress][hospitalAddress];\r\n    }\r\n\r\n    //working\r\n    function viewMyRecord(address patientAddress) \r\n        public \r\n        view \r\n        onlyRole(PATIENT_ROLE) \r\n        returns (Record[] memory) \r\n    {\r\n        require(msg.sender == patientAddress, \"Can only view own records\");\r\n        require(records[patientAddress].length > 0, \"No records found\");\r\n        return records[patientAddress];\r\n    }\r\n\r\n    //working\r\n    function viewPatientData(address patientAddress) \r\n        public \r\n        view \r\n        onlyRole(HOSPITAL_ROLE) \r\n        returns (Record[] memory) \r\n    {\r\n        require(patientConsents[patientAddress][msg.sender], \"Access denied\");\r\n        require(records[patientAddress].length > 0, \"No records found\");\r\n        return records[patientAddress];\r\n    }\r\n\r\n\r\n}\r\n",
  "sourcePath": "D:\\Codes\\Projects\\meddatachain-blockchain\\contracts\\MedicalDataTransfer.sol",
  "compiler": {
    "name": "solc",
    "version": "0.8.12+commit.f00d7308.Emscripten.clang"
  },
  "schemaVersion": "3.4.16",
  "updatedAt": "2025-05-15T11:24:46.429Z",
  "networkType": "ethereum",
  "devdoc": {
    "kind": "dev",
    "methods": {
      "getRoleAdmin(bytes32)": {
        "details": "Returns the admin role that controls `role`. See {grantRole} and {revokeRole}. To change a role's admin, use {_setRoleAdmin}."
      },
      "grantRole(bytes32,address)": {
        "details": "Grants `role` to `account`. If `account` had not been already granted `role`, emits a {RoleGranted} event. Requirements: - the caller must have ``role``'s admin role. May emit a {RoleGranted} event."
      },
      "hasRole(bytes32,address)": {
        "details": "Returns `true` if `account` has been granted `role`."
      },
      "renounceRole(bytes32,address)": {
        "details": "Revokes `role` from the calling account. Roles are often managed via {grantRole} and {revokeRole}: this function's purpose is to provide a mechanism for accounts to lose their privileges if they are compromised (such as when a trusted device is misplaced). If the calling account had been revoked `role`, emits a {RoleRevoked} event. Requirements: - the caller must be `account`. May emit a {RoleRevoked} event."
      },
      "revokeRole(bytes32,address)": {
        "details": "Revokes `role` from `account`. If `account` had been granted `role`, emits a {RoleRevoked} event. Requirements: - the caller must have ``role``'s admin role. May emit a {RoleRevoked} event."
      },
      "supportsInterface(bytes4)": {
        "details": "See {IERC165-supportsInterface}."
      }
    },
    "version": 1
  },
  "userdoc": {
    "kind": "user",
    "methods": {},
    "version": 1
  }
}